:100000000C942D350C94F0D20C94C5D20C949AD249
:100010000C946FD20C9444D20C9419D20C94EED15F
:100020000C94C3D10C94558D0C94A38D0C947C8DA1
:100030000C945E350C945E350C945E350C945E35F4
:100040000C945E350C9445D40C945E350C945E355E
:100050000C945E350C945E350C94E45F0D94108C1A
:100060000C945E350D9446910C945E350C945E357F
:100070000C945E350C945E350C945E350C945E35B4
:100080000C945E350C945E350C945E350C945E35A4
:100090000C945E350C945E350C945E350C945E3594
:1000A0000C945E350C945E350C945E350C945E3584
:1000B0000C945E350C945E350C945E350C945E3574
:1000C0000C945E350C945E350C945E350C945E3564
:1000D0000C945E350C945E350C945E350C945E3554
:1000E0000C945E35C180FE80F081AD83FC84078571
:1000F00017853BC722C73EC725C728C734C72BC7AC
:1001000039C72EC731C7C801DA014A017C014A014B
:100110004A014A014A014A014A014A014A014A0187
:100120004A014A014A014A014A014A014A014A0177
:100130004A014A014A014A014A014A014A014A0167
:100140004A0174014A014A014A014A014A014A012D
:100150004A014A01D8014A014A014A014A014A01B9
:100160004A014A014A014A014A01500176018801C7
:10017000CE0164019201600180018401A601B201F7
:100180005E016E01AA015601780180016A01B60183
:100190004401E201A4016C01BE01A201A0014201DF
:1001A000E801960158019A01CA018C01AE01A00133
:1001B000DC019801AC01084AD73B3BCE016E84BC00
:1001C000BFFDC12F3D6C74319ABD56833DDA3D00B1
:1001D000C77F11BED9E4BB4C3E916BAAAABE0000FA
:1001E00000803F05A84CCDB2D44EB93836A9020CD8
:1001F00050B9918688083CA6AAAA2ABE00000080B1
:100200003F07634236B79BD8A71A39685618AEBA6B
:10021000AB558C1D3CB7CC5763BD6DEDFD753EF6FF
:10022000177231BF000000803F08000000BE92241A
:1002300049123EABAAAA2ABECDCCCC4C3E0000004F
:1002400080BEABAAAAAA3E00000000BF000000804A
:100250003F0000000000084178D3BB4387D1133D25
:10026000190E3CC3BD4282AD2B3E68EC8276BED9EE
:100270008FE1A93E4C80EFFFBE01C4FF7F3F00002D
:10028000000000000D94548B0D943A880D942B1DA2
:100290000D94901A0D948F7D0D947B1A0D94F61287
:1002A0000D94317F0D945B560D94040C0D942888A9
:1002B0000D946E8B0D945D010D94E1150D941A88CB
:1002C0000D9401880D940A1B0D94F7870D94241842
:1002D0000D9412140D9432880D94368B0D941E8853
:1002E0000D94781A0D9422100D94147F0D948C7D2A
:1002F0000D942C880D94E4400D941A7F0D94781E73
:100300000D943F880D94BA190D940C880D946F5973
:100310000D9405880D946A1C0D94918B0D94190A07
:100320000D94FD170D94FB870D947D1A0D94648B2D
:100330000D94AF8B0D94788B0D94E60C0D948A067A
:100340000D94C38B0D944A8B0D94318B0D941088B2
:100350000D946D1B0D9424880D94B98B0D949B8B7B
:100360000D94E97C0D9416880D945D560D94368895
:100370000D9459560D94A05C0D94A2100D94408BD1
:100380000D947A8C0D94ED5A0D94F7970D94FB1003
:100390000D94DE7E0D94828B0D94C0980D94088888
:1003A0000D945A0F0D946E110D9469590D946C595A
:1003B0000D94ED7E0D94567D0D94A58B0D94201813
:1003C0000D9480070D942C8B0D947B8C0D94FC1850
:1003D0000D945C8B4E414E494E495459494E46CD81
:1003E000CCCC3D0AD7233C17B7D13877CC2B3295EC
:1003F00095E6241FB14F0A000020410000C84200CA
:10040000401C4620BCBE4CCA1B0E5AAEC59D740093
:10041000407A10F35A00A0724E18090010A5D4E8D3
:100420000000E87648170000E40B54020000CA9A66
:100430003B000000E1F505000080969800000040B8
:10044000420F000000A086010000001027000000FD
:1004500000E803000000006400000000000A000043
:100460000000000100000000002C76D888DC674FF7
:100470000823DFC1DFAE59E1B1B796E5E3E453C627
:100480003AE651997696E8E6C28426EB898C9B621F
:10049000ED407C6FFCEFBC9C9F40F2BAA56FA5F4C9
:1004A00090055A2AF75C936B6CF9676DC11BFCE0F1
:1004B000E40D47FEF520E6B500D0ED902E03009444
:1004C0003577050080841E080000204E0A000000D9
:1004D000C80C333333330F986E12831141EF8D21E3
:1004E00014893BE65516CFFEE6DB18D1844B381B4A
:1004F000F77C1D901DA4BBE424203284725E22810F
:1005000000C9F124ECA1E53D27434F4D4D554E491F
:10051000434154494F4E0044525952554E004552A2
:10052000524F525300494E464F004543484F0047F3
:10053000322F47332062616420706172616D65748F
:100540006572730A00536C6565702E2E2E00205A5A
:100550003A200020593A200042656420583A200091
:100560004D65736820706F696E742063616E6E6F85
:1005700074206265207265736F6C7665640A00434F
:100580006C69636B20746F20726573756D652E2EB8
:100590002E004E6F206D6F76652E00456E642066CE
:1005A000696C65206C6973740A00426567696E2026
:1005B00066696C65206C6973740A00286E6F20662A
:1005C000696C6529005344207072696E74696E67A6
:1005D000206279746520004E6F742053442070723D
:1005E000696E74696E670A0043757272656E742075
:1005F00066696C653A200046696C652064656C65C7
:100600007465643A0044656C6574696F6E20666158
:10061000696C65642C2046696C653A2000507269EB
:100620006E742074696D653A20006F6E2E0A006F3B
:1006300066662E0A004732362044656275672000E0
:100640002A0525051E05170509056F666600444540
:100650004255473A004B494C4C45442E20004D3101
:1006600031332053006F6B0056623A4E6F76203163
:10067000362032303139204F66662E002C20002C77
:100680002000544845524D414C5F50524F54454311
:1006900054494F4E004155544F5245504F52545FAC
:1006A00053445F53544154555300454D45524745BB
:1006B0004E43595F50415253455200434153455FA9
:1006C0004C494748545F4252494748544E4553535A
:1006D00000544F47474C455F4C49474854530053DB
:1006E0004F4654574152455F504F5745520042556F
:1006F000494C445F50455243454E54004C45564585
:100700004C494E475F44415441005A5F50524F425A
:1007100045004155544F4C4556454C005052494EAA
:10072000545F4A4F420050524F4752455353004185
:1007300055544F5245504F52545F54454D500056FA
:100740004F4C554D455452494300454550524F4D2D
:100750000053455249414C5F584F4E5F584F4646F3
:10076000004649524D574152455F4E414D453A4D25
:1007700061726C696E206275676669782D312E3101
:100780002E7820284769746875622920534F555286
:1007900043455F434F44455F55524C3A687474700B
:1007A000733A2F2F6769746875622E636F6D2F4DD2
:1007B00061726C696E4669726D776172652F4D6109
:1007C000726C696E2050524F544F434F4C5F5645E8
:1007D0005253494F4E3A312E30204D414348494EF5
:1007E000455F545950453A56623A4E6F762031363D
:1007F00020323031392045585452554445525F43D8
:100800004F554E543A3120555549443A6365646515
:10081000326132662D343161322D343734382D391E
:100820006231322D6335356336326633363766666C
:100830000A002F2F20004D31343520533C696E645F
:1008400065783E206F7574206F662072616E6765F3
:100850002028302D31290A00205400205200416305
:1008600063656C65726174696F6E3A205000574120
:10087000524E494E4721204C6F77205A204A6572CC
:100880006B206D6179206C65616420746F20756EDA
:1008900077616E746564207061757365732E0A00EC
:1008A0004F666673657473206170706C696564006F
:1008B0004572723A20546F6F206661722100546F46
:1008C0006F206661722066726F6D20726566657258
:1008D000656E636520706F696E740A0020466C6FE8
:1008E000773A2000000136372603FFFFFF353C3DF5
:1008F000380EFFFFFF312E303E12FFFFFFFF28FFB3
:100900000C0B05FFFF081A1C18FFFF2A0B440A06F0
:100910004320643A0020693A0020703A00496E761C
:10092000616C69642065787472756465720A00434D
:10093000290A0061626C656420286D696E20746507
:100940006D702000436F6C64206578747275646507
:100950007320617265200020643A0020693A00200B
:10096000703A004E6F2063617365206C696768742C
:100970000A00454550524F4D204F4B0A003F5A2028
:100980006F7574206F662072616E676520282D3246
:100990003020746F203230290A003A200050726FE4
:1009A0006265205A204F6666736574003F4B20765F
:1009B000616C7565206F7574206F662072616E675B
:1009C000652028302D3130292E0A00416476616E71
:1009D0006365204B3D0041637469766520457874FA
:1009E00072756465723A2000496E76616C696420A4
:1009F00065787472756465720A005072696E746508
:100A0000722073746F707065642064756520746FF4
:100A1000206572726F72732E204669782074686543
:100A2000206572726F7220616E6420757365204D4F
:100A300039393920746F20726573746172742E2095
:100A40002854656D706572617475726520697320D4
:100A500072657365742E2053657420697420616615
:100A60007465722072657374617274696E67290AA5
:100A70000053544F505045442E200070012C0190DB
:100A8000012701B0012201C0011D01F00118011070
:100A900002130130020E016002090190020401C03C
:100AA00002FF000003FA004003F5008003F000D0CD
:100AB00003EB002004E6007004E100E004DC0040E9
:100AC00005D700C005D2004006CD00D006C8008082
:100AD00007C3003008BE00F008B900C009B400B078
:100AE0000AAF00B00BAA00D00CA500000EA0005069
:100AF0000F9B00C01096005012910000148C00C093
:100B0000158700B0178200B0197D00D01B78000057
:100B10001E730040206E0090226900F024640040A3
:100B2000275F0090295A00E02B5500102E5000201E
:100B3000304B0010324600E033410090353C00104D
:100B400037370070383200A0392D00B03A2800A0A5
:100B50003B2300603C1E00103D1900903D14001026
:100B60003E0F00703E0A00C03E0500003F000040FE
:100B70003FFBFF803FF6FFC03FF1FF1000C90210AE
:100B8000012C014001220170011801B0010E01F099
:100B90000104015002FA00B002F0003003E600D078
:100BA00003DC009004D2007005C800A006BE00005F
:100BB00008B400B009AA00D00BA000600E96006037
:100BC000118C000015820020197800C01D6E00A055
:100BD000226400B0275A00902C500000314600E0FB
:100BE000343C0010383200903A2800603C1E00A0CF
:100BF0003D1400803E0A00203F000024F404D92068
:100C00001BC40C5C0E9804C4095F0265077101F4F3
:100C100005F900FB04B30048048700C103690058CC
:100C200003550003034500BE023A0084023100531D
:100C3000022A002902250004022000E4011C00C849
:100C4000011900AF0117009801140084011300710D
:100C50000110006101100051010E0043010D00362A
:100C6000010B002B010B0020010B00150109000CEA
:100C700001090003010800FB000800F3000800EB75
:100C8000000700E4000600DE000600D8000600D2DF
:100C9000000600CC000500C7000500C2000500BD2D
:100CA000000400B9000400B5000400B1000400AD68
:100CB000000400A9000400A5000300A20003009F97
:100CC0000004009B000300980003009500020093BD
:100CD000000300900003008D0002008B00030088D9
:100CE0000002008600020084000300810002007FF1
:100CF0000002007D0002007B000200790002007704
:100D00000001007600020074000200720001007110
:100D10000002006F0002006D0001006C0002006A1A
:100D20000001006900020067000100660001006523
:100D30000001006400020062000100610001006027
:100D40000001005F0002005D0001005C0001005B2B
:100D50000001005A0001005900010058000100572D
:100D6000000100560001005500010054000100532D
:100D7000000000530001005200010051000100502A
:100D80000001004F0001004E0000004E0001004D28
:100D90000001004C0001004B0000004B0001004A24
:100DA0000001004900010048000000480001004720
:100DB000000100460000004600010045000000451B
:100DC0000001004400010043000000430001004214
:100DD000000000420001004100000041000100400D
:100DE0000001003F0000003F0001003E0000003E07
:100DF0000001003D0000003D0001003C0000003CFF
:100E00000000003C0001003B0000003B0001003AF4
:100E10000000003A000100390000003900010038EC
:100E200000000038000000380001003700000037E3
:100E300000010036000000360000003600010035D9
:100E400000000035000000350001003400000034CF
:100E500000000034000100330000003300000033C4
:100E600000010032000000320000003200010031B9
:100E700000000031000000310001003000000030AF
:100E8000000000300001002F0000002F0000002FA4
:100E90000000002F0001002E0000002E0000002E98
:100EA0000001002D0000002D0000002D0000002D8D
:100EB0000001002C0000002C0000002C0000002C81
:100EC0000001002B0000002B0000002B0000002B75
:100ED0000001002A0000002A0000002A0000002A69
:100EE000000100290000002900000029000000295D
:100EF0000000002900010028000000280000002850
:100F00000000002800000028000100270000002742
:100F10000000002700000027000000270001002635
:100F20000000002600000026000000260000002629
:100F3000000100250000002500000025000000251C
:100F4000000000250000002500010024000000240E
:100F50000000002400000024000000240001002301
:100F600000000023000000230000002300000023F5
:100F700000000023000000230001002200000022E6
:100F800000000022000000220000002200000022D9
:100F900000010021000000210000002100000021CC
:100FA00000000021000000210000002100010020BD
:100FB00000000020000000200000002000000020B1
:100FC0000000002000000020000000200001001FA1
:100FD0000000001F0000001F0000001F0000001F95
:100FE0000000001F0000001F0001001E0000001E86
:100FF0000000001E0000001E00000024F4D4305049
:10100000C38E20C2A24017828B7011127A910D817B
:101010006CD90AA861E108C7586607615143061EEA
:101020004B5D05C145A7041A411104093D980371A0
:101030003931034036DB0265339102D430540280EB
:101040002E1D02632CEE01752AC501B028A00110E7
:101050002781018F2564012B244B01E0223401AC50
:10106000211F018D200D01801FFC00841EED0097C3
:101070001DDF00B81CD200E61BC600201BBC0064AC
:101080001AB200B219A8000A19A0006A189900D172
:1010900017910040178B00B516840031167E00B3FF
:1010A0001579003A157300C7146F0058146A00EEE2
:1010B0001366008813630025135E00C7125B006C83
:1010C00012570015125400C111510070114F002128
:1010D000114B00D61049008D104700461044000205
:1010E000104200C00F4000800F3E00420F3C00063F
:1010F0000F3B00CB0E3800930E37005C0E350027F7
:101100000E3400F30D3200C10D3100900D3000603F
:101110000D2E00320D2D00050D2C00D90C2B00AE2C
:101120000C2900850C29005C0C2700350C27000ECB
:101130000C2600E80B2400C40B2400A00B23007D28
:101140000B23005A0B2100390B2100180B2000F84B
:101150000A1F00D90A1E00BB0A1E009D0A1D00803E
:101160000A1D00630A1C00470A1B002C0A1B001101
:101170000A1A00F7091A00DD091900C4091900ABA1
:10118000091900920917007B091800630917004C20
:1011900009160036091600200916000A091500F57F
:1011A000081500E0081400CC081400B8081400A4C6
:1011B000081400900813007D0812006B08130058F3
:1011C000081200460812003408110023081100120A
:1011D00008110001081100F0071000E0071000D00E
:1011E000071000C0071000B0070F00A10710009102
:1011F000070E0083070F0074070F0065070E0057E6
:10120000070E0049070E003B070D002E070E0020B9
:10121000070D0013070D0006070D00F9060C00ED81
:10122000060D00E0060C00D4060C00C8060C00BC3D
:10123000060C00B0060C00A4060B0099060C008DED
:10124000060B0082060B0077060B006C060B006194
:10125000060A0057060B004C060A0042060A003830
:10126000060A002E060A0024060A001A060A0010C2
:1012700006090007060A00FD050900F4050900EB50
:10128000050900E2050900D9050900D0050900C7D4
:10129000050900BE050900B5050800AD050800A553
:1012A0000509009C050800940508008C05080084C9
:1012B0000508007C050800740508006C050700653A
:1012C0000508005D050700560508004E05070047A4
:1012D0000507004005080038050700310507002A0A
:1012E000050700230507001C050600160507000F6B
:1012F0000507000805060002050700FB040600F5C7
:10130000040700EE040600E8040600E2040700DB20
:10131000040600D5040600CF040600C9040600C375
:10132000040600BD040600B7040600B1040500ACC5
:10133000040600A6040600A00405009B0406009510
:10134000040500900406008A040500850405008059
:101350000406007A04050075040500700405006B9E
:1013600004050066040500610405005C04050057DF
:10137000040500520405004D04050048040500431F
:101380000405003E0404003A04050035040500305D
:101390000404002C04050027040400230405001E97
:1013A0000404001A04040016040500110404000DCE
:1013B000040400090405000404040000040400FC03
:1013C000030400F8030400F4030400F0030400EC39
:1013D000030400E8030400E4030400E0030400DC69
:1013E000030400D8030400D4030400D0030400CC99
:1013F000030400C8030300C50303000A4D657368B6
:10140000206F6E6C79207061727469616C6C7920E8
:10141000706F70756C617465642E0A0024F404D9D1
:10142000201BC40C5C0E9804C4095F02650771019F
:10143000F405F900FB04B30048048700C103690008
:101440005803550003034500BE023A0084023100F0
:1014500053022A002902250004022000E4011C0096
:10146000C8011900AF01170098011400840113008E
:10147000710110006101100051010E0043010D00C7
:1014800036010B002B010B0020010B001501090098
:101490000C01090003010800FB000800F30008002C
:1014A000EB000700E4000600DE000600D80006009E
:1014B000D2000600CC000500C7000500C2000500F0
:1014C000BD000400B9000400B5000400B100040030
:1014D000AD000400A9000400A5000300A200030061
:1014E0009F0004009B000300980003009500020089
:1014F00093000300900003008D0002008B000300A6
:1015000088000200860002008400030081000200BF
:101510007F0002007D0002007B00020079000200D3
:1015200077000100760002007400020072000100E2
:10153000710002006F0002006D0001006C000200EB
:101540006A000100690002006700010066000100F6
:1015500065000100640002006200010061000100FA
:10156000600001005F0002005D0001005C000100FE
:101570005B0001005A000100590001005800010001
:101580005700010056000100550001005400010001
:1015900053000000530001005200010051000100FF
:1015A000500001004F0001004E0000004E000100FD
:1015B0004D0001004C0001004B0000004B000100F9
:1015C0004A000100490001004800000048000100F5
:1015D00047000100460000004600010045000000F1
:1015E00045000100440001004300000043000100E9
:1015F00042000000420001004100000041000100E3
:10160000400001003F0000003F0001003E000000DC
:101610003E0001003D0000003D0001003C000000D4
:101620003C0000003C0001003B0000003B000100CA
:101630003A0000003A0001003900000039000100C2
:1016400038000000380000003800010037000000BA
:1016500037000100360000003600000036000100AF
:1016600035000000350000003500010034000000A6
:10167000340000003400010033000000330000009B
:10168000330001003200000032000000320001008F
:101690003100000031000000310001003000000086
:1016A00030000000300001002F0000002F0000007B
:1016B0002F0000002F0001002E0000002E0000006F
:1016C0002E0001002D0000002D0000002D00000064
:1016D0002D0001002C0000002C0000002C00000058
:1016E0002C0001002B0000002B0000002B0000004C
:1016F0002B0001002A0000002A0000002A00000040
:101700002A00010029000000290000002900000033
:101710002900000029000100280000002800000026
:101720002800000028000000280001002700000019
:10173000270000002700000027000000270001000C
:101740002600000026000000260000002600000001
:1017500026000100250000002500000025000000F3
:1017600025000000250000002500010024000000E5
:1017700024000000240000002400000024000100D8
:1017800023000000230000002300000023000000CD
:1017900023000000230000002300010022000000BD
:1017A00022000000220000002200000022000000B1
:1017B00022000100210000002100000021000000A3
:1017C0002100000021000000210000002100010094
:1017D0002000000020000000200000002000000089
:1017E0002000000020000000200000002000010078
:1017F0001F0000001F0000001F0000001F0000006D
:101800001F0000001F0000001F0001001E0000005C
:101810001E0000001E0000001E00000024F4D43052
:1018200050C38E20C2A24017828B7011127A910D84
:10183000816CD90AA861E108C7586607615143065F
:101840001E4B5D05C145A7041A411104093D9803CB
:10185000713931034036DB0265339102D4305402D2
:10186000802E1D02632CEE01752AC501B028A0014F
:10187000102781018F2564012B244B01E0223401C4
:10188000AC211F018D200D01801FFC00841EED0086
:10189000971DDF00B81CD200E61BC600201BBC0051
:1018A000641AB200B219A8000A19A0006A189900B7
:1018B000D117910040178B00B516840031167E00B9
:1018C000B31579003A157300C7146F0058146A00F5
:1018D000EE1366008813630025135E00C7125B00D9
:1018E0006C12570015125400C111510070114F00B5
:1018F00021114B00D61049008D10470046104400BE
:1019000002104200C00F4000800F3E00420F3C001A
:10191000060F3B00CB0E3800930E37005C0E3500EF
:10192000270E3400F30D3200C10D3100900D300050
:10193000600D2E00320D2D00050D2C00D90C2B0052
:10194000AE0C2900850C29005C0C2700350C270003
:101950000E0C2600E80B2400C40B2400A00B23006F
:101960007D0B23005A0B2100390B2100180B20009E
:10197000F80A1F00D90A1E00BB0A1E009D0A1D009E
:10198000800A1D00630A1C00470A1B002C0A1B006A
:10199000110A1A00F7091A00DD091900C409190013
:1019A000AB091900920917007B0918006309170099
:1019B0004C09160036091600200916000A09150000
:1019C000F5081500E0081400CC081400B80814004D
:1019D000A4081400900813007D0812006B0813007F
:1019E000580812004608120034081100230811009C
:1019F0001208110001081100F0071000E0071000A4
:101A0000D0071000C0071000B0070F00A10710009A
:101A100091070E0083070F0074070F0065070E0083
:101A200057070E0049070E003B070D002E070E005A
:101A300020070D0013070D0006070D00F9060C0026
:101A4000ED060D00E0060C00D4060C00C8060C00E4
:101A5000BC060C00B0060C00A4060B0099060C0096
:101A60008D060B0082060B0077060B006C060B0040
:101A700061060A0057060B004C060A0042060A00DF
:101A800038060A002E060A0024060A001A060A0072
:101A90001006090007060A00FD050900F405090003
:101AA000EB050900E2050900D9050900D005090088
:101AB000C7050900BE050900B5050800AD05080009
:101AC000A50509009C050800940508008C05080080
:101AD000840508007C050800740508006C050700F3
:101AE000650508005D050700560508004E0507005E
:101AF00047050700400508003805070031050700C5
:101B00002A050700230507001C0506001605070027
:101B10000F0507000805060002050700FB04060084
:101B2000F5040700EE040600E8040600E2040700DE
:101B3000DB040600D5040600CF040600C904060035
:101B4000C3040600BD040600B7040600B104050086
:101B5000AC040600A6040600A00405009B040600D1
:101B600095040500900406008A040500850405001C
:101B7000800406007A040500750405007004050061
:101B80006B04050066040500610405005C040500A3
:101B900057040500520405004D04050048040500E3
:101BA000430405003E0404003A0405003504050022
:101BB000300404002C04050027040400230405005D
:101BC0001E0404001A040400160405001104040095
:101BD0000D040400090405000404040000040400CA
:101BE000FC030400F8030400F4030400F003040001
:101BF000EC030400E8030400E4030400E003040031
:101C0000DC030400D8030400D4030400D003040060
:101C1000CC030400C8030300C503030053746172BE
:101C200074206F662075626C2E6C696E655F746FD0
:101C30005F64657374696E6174696F6E5F6361720E
:101C400074657369616E2829006F7574206F662052
:101C5000626F756E647320696E2075626C2E6C699C
:101C60006E655F746F5F64657374696E6174696FCC
:101C70006E5F63617274657369616E2829004649FD
:101C80004E414C5F4D4F564520696E2075626C2E5B
:101C90006C696E655F746F5F64657374696E61749F
:101CA000696F6E5F63617274657369616E28290084
:101CB000766572746963616C206D6F766520646F00
:101CC0006E6520696E2075626C2E6C696E655F743E
:101CD0006F5F64657374696E6174696F6E5F636171
:101CE0007274657369616E282900686F72697A6F12
:101CF0006E74616C206D6F766520646F6E6520690F
:101D00006E2075626C2E6C696E655F746F5F6465C2
:101D10007374696E6174696F6E5F63617274657309
:101D200069616E28290067656E65726963206D6F51
:101D3000766520646F6E6520696E2075626C2E6C0E
:101D4000696E655F746F5F64657374696E617469F1
:101D50006F6E5F63617274657369616E2829004DEF
:101D60006F76696E672E2E2E005A2D4F666673654C
:101D7000743A20004175746F20686F6D65004732BA
:101D800038004175746F74656D70005049442D4979
:101D9000005049442D4400416363656C00412D723D
:101DA00065747261637400412D74726176656C00B4
:101DB000567A2D6A65726B005873746570732F6D57
:101DC0006D005973746570732F6D6D005A7374656F
:101DD00070732F6D6D004573746570732F6D6D009A
:101DE00046696C2E204469612E005072696E742021
:101DF00066726F6D205344005072696E7420667273
:101E00006F6D205344004368616E67652066696C9E
:101E1000616D656E7400696E206D6F76655F746FBD
:101E2000282920666565645F76616C756520666F3C
:101E3000722058593A004C656176696E67204732C6
:101E400036004732362048656174696E67204E6FF0
:101E50007A7A6C652E004732362048656174696E67
:101E600067204265642E00446F6E65205072696D74
:101E7000696E6700557365722D436F6E74726F6C77
:101E80006C6564205072696D6500466978656420F0
:101E90004C656E677468205072696D652E004D65E3
:101EA00073682056616C69646174696F6E20537445
:101EB0006F707065642E002C2065793D0029202DFF
:101EC0003E202865783D002C2073793D0020436F2B
:101ED0006E6E656374696E672077697468207665D5
:101EE00072746963616C206C696E65202873783D3B
:101EF000002C2065793D0029202D3E202865783D65
:101F0000002C2073793D0020436F6E6E6563746909
:101F10006E67207769746820686F72697A6F6E7473
:101F2000616C206C696E65202873783D004C65619A
:101F300076696E6720473236003F53706563696685
:101F400069656420582C5920636F6F7264696E61F3
:101F50007465206F7574206F6620626F756E647390
:101F60002E0A003F28522965706561742076616CE5
:101F70007565206E6F7420706C61757369626C6535
:101F80003B206D757374206265206174206C6561FF
:101F9000737420312E0A003F53706563696669656A
:101FA00064206E6F7A7A6C652074656D70657261FD
:101FB00074757265206E6F7420706C6175736962E0
:101FC0006C652E0A003F537065636966696564201D
:101FD00066696C616D656E742073697A65206E6FD9
:101FE0007420706C61757369626C652E0A003F53D2
:101FF0007065636966696564207072696D65206CDF
:10200000656E677468206E6F7420706C617573699B
:10201000626C652E0A003F5370656369666965648A
:10202000206E6F7A7A6C652073697A65206E6F74A2
:1020300020706C61757369626C652E0A003F537085
:102040006563696669656420526574726163746969
:102050006F6E204D756C7469706C696572206E6F5F
:102060007420706C61757369626C652E0A003F5252
:10207000657472616374696F6E204D756C746970FC
:102080006C696572206D757374206265207370656C
:102090006369666965642E0A003F5370656369660B
:1020A000696564206C617965722068656967687428
:1020B000206E6F7420706C61757369626C652E0A96
:1020C000003F5370656369666965642062656420DA
:1020D00074656D7065726174757265206E6F7420C1
:1020E000706C61757369626C65202834302D3134F1
:1020F0003043292E0A0047323620636F6D6D616EC2
:102100006420737461727465642E20576169746908
:102110006E6720666F722068656174657228732926
:102120002E0A001000C90210012C0140012201708A
:10213000011801B0010E01F00104015002FA00B0D3
:1021400002F0003003E600D003DC009004D20070FF
:1021500005C800A006BE000008B400B009AA00D05F
:102160000BA000600E960060118C0000158200200C
:10217000197800C01D6E00A0226400B0275A00909C
:102180002C500000314600E0343C00103832009002
:102190003A2800603C1E00A03D1400803E0A00204A
:1021A0003F00000606FFFFFFFF000002020202627E
:1021B00065640A002C2073797374656D2073746FE5
:1021C0007070656421204865617465725F49443AA6
:1021D00020004265642068656174696E67206661ED
:1021E000696C65640048656174696E672066616941
:1021F0006C65640045312048656174696E672066CE
:1022000061696C65640048656174696E6720666128
:10221000696C65640070012C0190012701B00122F6
:1022200001C0011D01F00118011002130130020E5E
:10223000016002090190020401C002FF000003FADC
:10224000004003F5008003F000D003EB002004E61B
:10225000007004E100E004DC004005D700C005D2B6
:10226000004006CD00D006C8008007C3003008BE7D
:1022700000F008B900C009B400B00AAF00B00BAA62
:1022800000D00CA500000EA000500F9B00C01096BF
:10229000005012910000148C00C0158700B0178206
:1022A00000B0197D00D01B7800001E730040206E26
:1022B0000090226900F024640040275F0090295AB2
:1022C00000E02B5500102E500020304B00103246FD
:1022D00000E033410090353C001037370070383251
:1022E00000A0392D00B03A2800A03B2300603C1E1E
:1022F00000103D1900903D1400103E0F00703E0A82
:1023000000C03E0500003F0000403FFBFF803FF65D
:10231000FFC03FF1FF453120544845524D414C200C
:1023200052554E4157415900424544205448455268
:102330004D414C2052554E415741590054686572E9
:102340006D616C2052756E61776179004531204571
:1023500072723A204D415854454D50004572723AC0
:10236000204D415854454D5020424544004D415860
:1023700054454D5020747269676765726564004505
:1023800031204572723A204D494E54454D5000451A
:1023900072723A204D494E54454D502042454400FA
:1023A0004D494E54454D502074726967676572659A
:1023B00064004D383420582059205A204500202FE1
:1023C000002042403A0020403A00556E6966696537
:1023D0006420426564204C6576656C696E670020F8
:1023E0005A00204A0020204D34323120490020205C
:1023F00047323920493939390A0061637469766591
:102400002E0A00696E002053797374656D20763151
:102410002E303120002020207C0A004E414E00202A
:10242000202E20202000207C004C43443A0A004308
:1024300053563A0A0020666F7220003A0A0A000AD0
:1024400042656420546F706F6772617068792052C2
:1024500065706F72740025753A253032750025302D
:1024600032753A2530327500257564202530327575
:102470003A2530327500202020202020005A0059B3
:10248000002020202000580009200000000000004B
:10249000000000000000003FFFF00000000000000E
:1024A0000000000000003800700000000000000084
:1024B000000000000030FC300000000000000000C0
:1024C0000000000020FC10000000000000000000E0
:1024D0000000002078100000000000000000000054
:1024E000000020301000000000000000000000008C
:1024F000002C00D03FC0000000000000002082003F
:102500002E31D07FE0000000000000001041002FBD
:102510007BD07FE0000000000000001041002F7B16
:10252000D07FE0000000000000002082002E31D0AB
:102530003FC0000000000000004104002C00D03F1C
:10254000C0000000000000008208002030107FE082
:10255000000000000000008208002078107FE000EA
:1025600000000000000041040020FC107FE000009B
:10257000000000000020820030FC301F80000000BE
:10258000000000000000003800700F000000000094
:10259000000000FFFFC03FFFF00600000000000049
:1025A0000000FFFFC000000000000000000000006D
:1025B000000000003FFFF0000000000000000000ED
:1025C0000000003800700000000000000000000063
:1025D0000000318630000000000000000000000014
:1025E0000023871000000000000000000000000031
:1025F0002787900000000000000000000000002F6E
:1026000087D00000000000000000000000002F0341
:10261000D03FC000000000000000208200203010E9
:102620007FE0000000000000001041002078107FD3
:10263000E0000000000000001041002078107FE062
:10264000000000000000002082002030103FC00089
:102650000000000000004104002F03D03FC0000034
:1026600000000000008208002F87D07FE0000000FB
:10267000000000008208002787907FE00000000033
:102680000000004104002387107FE00000000000EC
:1026900000002082003186301F8000000000000012
:1026A000000000003800700F000000000000000073
:1026B000FFFFC03FFFF0060000000000000000FF29
:1026C000FFC000000056623A4E6F7620313620324D
:1026D0003031392052656164792E005072696E7410
:1026E000696E672E2E2E005072696E7420706175AF
:1026F000736564004732380A47323920570A4D3132
:1027000031372055736572205363726970742044A9
:102710006F6E65004D313430205337300A4D313003
:102720003420533138300A4D3131372055736572BA
:102730002053637269707420446F6E65004D3134AC
:102740003020533130300A4D31303420533233355C
:102750000A4D3131372055736572205363726970A9
:102760007420446F6E65004D313430205331303069
:102770000A4732380A4732390A4D3131372055730A
:1027800065722053637269707420446F6E650047F0
:1027900032380A4D3530330A4D31313720557365A3
:1027A000722053637269707420446F6E65004865CF
:1027B0006174204265642F486F6D652F4C657665A6
:1027C0006C005072656865617420666F72204142CA
:1027D00053005072656865617420666F7220504CBA
:1027E0004100486F6D65202620496E666F00486F76
:1027F0006D6520262055424C20496E666F004D6164
:10280000696E005072696E742061626F72746564E3
:10281000004E6F2053442063617264005072696EF1
:10282000742066726F6D2053440053746F70207073
:1028300072696E7400526573756D65207072696E91
:10284000740041626F7574205072696E7465720015
:102850005061757365207072696E7400436F6E7499
:10286000726F6C00507265706172650054756E65B0
:1028700000437573746F6D20436F6D6D616E64738B
:1028800000496E666F2073637265656E003F4D652B
:10289000736820746F6F2062696720666F722045CD
:1028A0004550524F4D2E0A00446F6E652E0A003F70
:1028B000557365203020746F20003F496E76616C3F
:1028C00069642073746F7261676520736C6F742E16
:1028D0000A003F454550524F4D2073746F72616737
:1028E00065206E6F7420617661696C61626C652E23
:1028F0000A00446F6E652E0A003F55736520302034
:10290000746F20003F496E76616C69642073746F48
:102910007261676520736C6F742E0A003F454550E5
:10292000524F4D2073746F72616765206E6F742013
:10293000617661696C61626C652E0A0047323920EC
:1029400050322066696E69736865642E0A005859B2
:10295000206F757473696465207072696E7461624A
:102960006C65207261646975732E0A003F4572724E
:102970006F7220696E20427573696E6573732043B0
:10298000617264206D6561737572656D656E742E1C
:102990000A004D616E75616C6C792070726F6269AE
:1029A0006E6720756E726561636861626C65206D2B
:1029B000657368206C6F636174696F6E732E0A00B3
:1029C000292E0A0A0050726F62696E67204D657386
:1029D0006820506F696E747320436C6F73657374F5
:1029E00020746F2028004D65736820696E76616CD5
:1029F0006964617465642E2050726F62696E67202D
:102A00006D6573682E0A004D657368207A65726F74
:102A100065642E0A0044656661756C742073746F7A
:102A20007261676520736C6F7420302073656C650C
:102A3000637465642E0A004C6F6164696E6720746C
:102A40006573745F7061747465726E2076616C7505
:102A500065732E0A0A00496E76616C69642074659C
:102A600073745F7061747465726E2076616C7565E5
:102A70002E20282D3120746F2032290A0A004C6F35
:102A8000636174696F6E7320696E76616C696461ED
:102A90007465642E0A0A00456E74697265204D657E
:102AA000736820696E76616C6964617465642E0A6E
:102AB0000A005374616E64617264204465766961D2
:102AC00074696F6E3A20004D65616E204D657368C4
:102AD000204865696768743A200023206F66207378
:102AE000616D706C65733A20000A4D657368206FE4
:102AF0006E6C79207061727469616C6C7920706F92
:102B000070756C617465642E0A0A0020616E642021
:102B100074616B652061206D6561737572656D65AB
:102B20006E742E0A006D6D20746869636B2E0A0046
:102B3000427573696E6573732043617264206973B3
:102B4000200052656D6F76652026206D6561737576
:102B50007265206265640052656D6F7665207368EA
:102B6000696D00506C616365207368696D20262073
:102B70006D65617375726500506C61636520736883
:102B8000696D20756E646572206E6F7A7A6C65006F
:102B90004D65736820506F696E74204D6561737563
:102BA0007265642061743A20000A4D657368206F75
:102BB0006E6C79207061727469616C6C7920706FD1
:102BC00070756C617465642E0A004D656173757271
:102BD0006500506C616365207368696D2026206D07
:102BE000656173757265004D6F76696E6720746FED
:102BF000206E657874004D657368206C6F61646544
:102C0000642066726F6D20736C6F7420004861726F
:102C100064636F6465642044656661756C742053F9
:102C2000657474696E6773204C6F616465640A0033
:102C3000B80B0000B80B0000640000001027000073
:102C40000000964300009643000040410000F0421F
:102C50000000A0420000A0420000C8430080CF4313
:102C60003A0A0020286D6D290020204D363033208F
:102C7000002055004C0046696C616D656E74206CD7
:102C80006F61642F756E6C6F6164206C656E677424
:102C900068733A0A0020204D393030204B004C69CF
:102CA0006E65617220416476616E63653A0A002048
:102CB000204D383531205A005A2D50726F626520F0
:102CC0004F66667365740020440020490020204D43
:102CD00033303420500020440020490020204D3360
:102CE00030312050005049442073657474696E6718
:102CF000733A0A0020460020420020480020204D60
:102D00003134352053004D6174657269616C2068FF
:102D1000656174757020706172616D657465727340
:102D20003A0A00206D65736865732E0A0A004545EE
:102D300050524F4D2063616E20686F6C6420000A12
:102D4000416374697665204D65736820536C6F74B8
:102D50003A2000205A0020204D3432302053003ACF
:102D60000A00205A0020590020204D3230362058C9
:102D700000486F6D65206F66667365743A0A0020BF
:102D80004500205A002059002058002054002053AC
:102D90000020204D32303520510020453C6D6178B7
:102DA0005F655F6A65726B3E0020583C6D61785FBD
:102DB000785F6A65726B3E20593C6D61785F795F20
:102DC0006A65726B3E205A3C6D61785F7A5F6A6516
:102DD000726B3E00416476616E6365643A20513CDB
:102DE0006D696E5F7365676D656E745F74696D653F
:102DF0005F75733E20533C6D696E5F6665656472F6
:102E00006174653E20543C6D696E5F7472617665D5
:102E10006C5F66656564726174653E0020540020D5
:102E2000520020204D323034205000416363656CE5
:102E300065726174696F6E2028756E6974732F7383
:102E400032293A20503C7072696E745F6163636529
:102E50006C3E20523C726574726163745F6163639F
:102E6000656C3E20543C74726176656C5F6163638F
:102E7000656C3E0A00204500205A002059002020A1
:102E80004D3230312058004D6178696D756D2041AB
:102E90006363656C65726174696F6E2028756E6915
:102EA00074732F7332293A0A00204500205A0020FB
:102EB000590020204D3230332058004D6178696D23
:102EC000756D206665656472617465732028756E22
:102ED0006974732F73293A0A00204500205A002094
:102EE000590020204D3932205800537465707320EA
:102EF00070657220756E69743A0A0020204D323078
:102F0000302044300A0020204D3230302044002050
:102F100044697361626C65640A0046696C616D6541
:102F20006E742073657474696E67733A0020204D67
:102F30003134392043203B20556E69747320696E0B
:102F40002043656C736975730A0020204732312075
:102F50002020203B00545249474745524544006FCA
:102F600070656E003A20007A5F6D696E00795F6D62
:102F7000696E00785F6D696E005265706F7274697A
:102F80006E6720656E6473746F70207374617475FE
:102F9000730A0020746F6F206C6F6E672065787401
:102FA000727573696F6E2070726576656E74656494
:102FB0000A0020636F6C6420657874727573696FA2
:102FC0006E2070726576656E7465640A0043617286
:102FD000642072656D6F7665640043617264206978
:102FE0006E7365727465640000060900FE07019245
:102FF0000321207FFF07FF07FF00000006000001FC
:10300000070706020080808080800080030202069D
:103010000105A0A00507070600005050F850F85021
:10302000500507070600002078A07028F02005074B
:1030300007060000C0C810204098180507070600C2
:10304000006090A040A89068020303060104C040FD
:10305000800307070601002040808080402003078E
:10306000070601008040202020408005050506005D
:103070000120A870A8200505050600012020F820E1
:10308000200203030602FFC0408005010106000381
:10309000F8020202060200C0C0050505060001088C
:1030A00010204080050707060000708888888888FF
:1030B0007003070706010040C040404040E005079C
:1030C00007060000708808708080F8050707060072
:1030D00000F81020100808F005070706000010305F
:1030E0005090F81010050707060000F880F0080857
:1030F0008870050707060000708080F088887005DA
:103100000707060000F80810202020200507070602
:1031100000007088887088887005070706000070B6
:10312000888878080870020505060200C0C000C043
:10313000C00206060602FFC0C000C04080040707A8
:103140000600001020408040201005030306000206
:10315000F800F80407070601008040201020408096
:1031600005070706000070880810200020050707E3
:1031700006000070880868A8A87005070706000008
:10318000708888F8888888050707060000F0888816
:10319000F08888F005070706000070888080808826
:1031A00070050707060000F08888888888F0050702
:1031B00007060000F88080F08080F8050707060009
:1031C00000F88080F0808080050707060000708886
:1031D00080B8888870050707060000888888F88806
:1031E0008888010707060200808080808080800533
:1031F000070706000038101010109060050707063A
:1032000000008890A0C0A0908805070706000080F5
:103210008080808080F805070706000088D8A8888D
:103220008888880507070600008888C8A8988888C5
:1032300005070706000070888888888870050707DA
:10324000060000F08888F0808080050707060000EF
:1032500070888888A89068050707060000F08888AD
:10326000F0A09088050707060000788080700808A5
:10327000F0050707060000F8202020202020050781
:103280000706000088888888888870050707060078
:1032900000888888888850200507070600008888ED
:1032A000888888A8500507070600008888502050A5
:1032B0008888050707060000888888502020200598
:1032C0000707060000F80810204080F803070706EB
:1032D0000100E08080808080E00505050600018017
:1032E00040201008030707060100E02020202020CE
:1032F000E0050303060004205088050101060000D4
:10330000F80202020602058040050505060000706D
:10331000087888780507070600008080B0C888888C
:10332000F005050506000070808088700507070617
:103330000000080868988888780505050600007070
:1033400088F880700507070600003048E0404040DC
:10335000400506060600FF70888878087005070794
:103360000600008080B0C888888801070706020030
:10337000800080808080800308080601FF200020F4
:10338000202020A040040707060000808090A0C0F5
:10339000A090030707060100C04040404040E00500
:1033A0000505060000D0A8A8A8A805050506000088
:1033B000B0C8888888050505060000708888887070
:1033C0000506060600FFF08888F0808005060606E0
:1033D00000FF788888780808050505060000B0C851
:1033E00080808005050506000070807008F00407E5
:1033F000070600004040E04040403005050506005B
:103400000088888898680505050600008888885027
:10341000200505050600008888A8A85005050506B2
:10342000000088502050880506060600FF8888881E
:10343000780870050505060000F8102040F803071D
:103440000706010020404080404020010707060297
:103450000080808080808080030707060100804014
:1034600040204040800502020600026890000000F3
:103470000600004D6F76652058004D6F7665205927
:10348000004D6F7665205A004578747275646572D8
:10349000004D6F766520302E316D6D004D6F766575
:1034A00020316D6D004D6F76652031306D6D004DB2
:1034B0006F7665206178697300457874727564650C
:1034C00072004D6F7665205A004D6F766520590069
:1034D0004D6F76652058004578747275646572008A
:1034E0004D6F7665205A004D6F76652059004D6FFF
:1034F00076652058005072657061726500496E698A
:103500007469616C697A6520454550524F4D00439E
:103510006F6E74726F6C00526573746F72652066A3
:1035200061696C73616665004C6F616420736574DA
:1035300074696E677300496E697469616C697A6554
:1035400020454550524F4D0053746F72652073658E
:103550007474696E67730046696C616D656E7400A2
:103560004D6F74696F6E0054656D7065726174752E
:103570007265004D61696E00507265686561742006
:1035800041425320636F6E660050726568656174D6
:1035900020504C4120636F6E66005049442D44001A
:1035A0005049442D44005049442D49005049442D70
:1035B00049005049442D50005049442D5000504975
:1035C000442D5000200820466163740020082046E6
:1035D0006163740020082046616374002008204D58
:1035E0006178002008204D6178002008204D617826
:1035F000002008204D696E002008204D696E0020D3
:1036000008204D696E004F6666004F6E20004175C0
:10361000746F74656D700046616E207370656564CB
:103620000046616E2073706565640046616E2073AC
:1036300070656564004265640042656400426564CB
:10364000004E6F7A7A6C65004E6F7A7A6C65004E28
:103650006F7A7A6C6500436F6E74726F6C0053748E
:103660006F72652073657474696E67730042656478
:103670000042656400426564004E6F7A7A6C6500B2
:103680004E6F7A7A6C65004E6F7A7A6C650046618F
:103690006E2073706565640046616E2073706565A9
:1036A000640046616E2073706565640054656D70DA
:1036B00065726174757265004D373032205425642F
:1036C000004D36303020423020542564004D3730D4
:1036D00032203B2564004D3730312054256400559D
:1036E0006E6C6F61642066696C616D656E74005507
:1036F0006E6C6F61642066696C616D656E74004DFF
:10370000373032004D373031004C6F6164206669CC
:103710006C616D656E74004D363030204230004370
:1037200068616E67652066696C616D656E740050D6
:10373000726570617265005052494E542050415577
:1037400053454400554E4C4F41442046494C414D51
:10375000454E54004C4F41442046494C414D454E46
:1037600054005075726765206D6F726500436F6E0F
:1037700074696E756500524553554D45204F505440
:10378000494F4E533A0020204E6F7A7A6C653A20AA
:10379000006368616E6765006F6620746865206607
:1037A000696C616D656E74005761697420666F7233
:1037B0002073746172740020204E6F7A7A6C653ABF
:1037C0002000200066696C616D656E7420756E6CFA
:1037D0006F6164005761697420666F720020204E2B
:1037E0006F7A7A6C653A20002000506C65617365D1
:1037F00020776169742E2E2E0048656174696E67AA
:10380000206E6F7A7A6C650020204E6F7A7A6C6534
:103810003A2000200068656174206E6F7A7A6C65CA
:103820002E00507265737320627574746F6E20740D
:103830006F0020204E6F7A7A6C653A2000746F20FA
:10384000636F6E74696E75652E2E2E00616E642036
:10385000707265737320627574746F6E00496E7355
:103860006572742066696C616D656E740020204E0F
:103870006F7A7A6C653A2000200066696C616D652C
:103880006E74206C6F6164005761697420666F729A
:103890000020204E6F7A7A6C653A2000200066691D
:1038A0006C616D656E742070757267650057616933
:1038B0007420666F7200746F20726573756D650099
:1038C0005761697420666F72207072696E74004768
:1038D0003238004732362043204225692048256986
:1038E000205000496E666F2073637265656E0056E6
:1038F000616C696461746520437573746F6D204DEC
:103900006573680056616C69646174652041425357
:10391000204D657368004732380A4732362043200D
:1039200042313030204832333520500056616C69C6
:103930006461746520504C41204D657368004732C6
:10394000380A473236204320423730204831383059
:1039500020500055424C20546F6F6C730047323931
:10396000204A2569004C6576656C204D65736800BA
:103970005369646520506F696E74730053696465A0
:1039800020506F696E7473005369646520506F69CD
:103990006E74730055424C20546F6F6C7300496E07
:1039A000666F2073637265656E0047726964204DAF
:1039B000657368204C6576656C696E6700332D50C1
:1039C0006F696E74204C6576656C696E670047326E
:1039D00039204A300055424C20546F6F6C730047B9
:1039E0003239205033205220432E256900496E661B
:1039F0006F2073637265656E004D616E75616C203A
:103A000046696C6C2D696E00473239205032204275
:103A100020543000536D6172742046696C6C2D69BE
:103A20006E004732392050332054300046696C6CA8
:103A30002D696E20416D6F756E740046696C6C2D3A
:103A4000696E20416D6F756E740046696C6C2D69EE
:103A50006E20416D6F756E74004275696C64204D07
:103A6000657368004D65736820696E76616C696482
:103A7000617465642E0A00496E666F207363726517
:103A8000656E00496E76616C696461746520436C93
:103A90006F7365737400473239204900496E76614F
:103AA0006C696461746520416C6C00436F6E74696D
:103AB0006E756520426564204D6573680047323934
:103AC00020503120430046696C6C2D696E204D6595
:103AD0007368004275696C6420436F6C64204D65A7
:103AE0007368004732380A47323920503100427536
:103AF000696C6420437573746F6D204D6573680045
:103B00004275696C6420414253204D6573680047DB
:103B100032380A4D31393020533130300A4D31308E
:103B20003920533233350A4732392050310A4D316A
:103B300030342053300A4D31343020533000427538
:103B4000696C6420504C41204D65736800473238E1
:103B50000A4D313930205337300A4D313039205336
:103B60003138300A4732392050310A4D3130342053
:103B700053300A4D3134302053300055424C2054DC
:103B80006F6F6C73004D313137204D6573682025A0
:103B900069207361766564004732392053256900D6
:103BA0004D313137204D657368202569206C6F6178
:103BB00064656400473239204C256900536176659D
:103BC00020426564204D657368004C6F616420423B
:103BD0006564204D657368004D656D6F7279205383
:103BE0006C6F74004D656D6F727920536C6F74004B
:103BF0004D656D6F727920536C6F74004E6F20733A
:103C0000746F7261676500556E696669656420420C
:103C10006564204C6576656C696E6700486F6D69F8
:103C20006E672058595A00473239205034205825A1
:103C300073205925732052256900202D2D2D2D2DFF
:103C40000000007041BAE83E42BAE8A042175DE2C7
:103C500042BAE81143E8A23243175D534346177452
:103C600043BA688A43D1C59A43E822AB430080BB7C
:103C70004317DDCB432E3ADC434697EC435DF4FC1F
:103C80004300007041A38B4242A38BA44274D1E74E
:103C900042A38B15438C2E374374D158435D747AFD
:103CA00043A30B8E4317DD9E438CAEAF430080C011
:103CB000437451D143E922E2435DF4F243E9E20166
:103CC00044000000000000000000000000000000B0
:103CD00000000000000000000000000000000000E4
:103CE00000000000000000000000000000000000D4
:103CF00000000000000000000000000000000000C4
:103D000000000000000000000008000000000000AB
:103D1000000000000000003E000000000000000065
:103D200000000000007F8000000000000000000094
:103D3000000001FFE00000000000000000000000A3
:103D400007FFF000000000000000000000001FFF5F
:103D5000FC00000000000000000000003FFFFF002A
:103D600000000000000000000000FFFFFF800000D6
:103D70000000000000000003FF0F87E000000000CB
:103D8000000000000007FE0F07F000000000000028
:103D900000000007FE1E0FF0000000000000000001
:103DA0000007FC1E1FF000000000000000000007DC
:103DB000F83C1FF03E0F8FFC7F03F87FE007F87898
:103DC0003FF03E0F8FFC61860C060007F0787FF015
:103DD0003E0F8038608406060007E0F07FF03F1F4A
:103DE0008070608406060007E1E0FFF03B1B80E086
:103DF000618C06060007C1E1FFF03B1B81E07F0CF0
:103E000006060007FFC1E1F03BBB81C0618C0606DE
:103E10000007FF83C1F039B3838060CC060600073A
:103E2000FF8783F039F3870060CC06060007FF07A1
:103E300087F039F38F0060C406060007FE0F07F015
:103E400038E38FFC60C60C060007FE1E0FF038E357
:103E50008FFC7F83F8060007FC1E1FF000000000A7
:103E6000000000000007F83C1FF000000000000008
:103E700000000007F8783FF000000000000000009C
:103E80000003F0787FE00000000000000000000068
:103E9000FFFFFF80000000000000000000003FFF67
:103EA000FF00000000000000000000001FFFFC00F9
:103EB0000000000000000000000007FFF00000000C
:103EC000000000000000000001FFE0000000000012
:103ED000000000000000007F8000000000000000E3
:103EE00000000000003E0000000000000000000094
:103EF00000000008000000000000000000000000BA
:103F000000000000000000000000000000000000B1
:103F100000000000000000000000000000000000A1
:103F20000000000000000000000000000000000091
:103F30000000000000000000000000000000000081
:103F400000000000001FFFFFFFFFFFFF60000000F8
:103F50000001FF400000000000FF800000000000A2
:103F60007F83CF00000C303F87FF80000C301F861E
:103F70007980000C000F8C30C7838C30E78C30CFF9
:103F8000C7CC31F38C30DCECEC33B98C30D86C6CB2
:103F900033198C30D06C0C33198C30D86C0C33192D
:103FA0008C30DC6C0E3B198C30CF7C079F198C3029
:103FB000C77C038F19400000000000026000000071
:103FC0000000061FFFFFFFFFFFF82020506C616E0E
:103FD0006E657242756666657242797465733A20E1
:103FE000002046726565204D656D6F72793A20003C
:103FF000436F6D70696C65643A204E6F7620313680
:1040000020323031390A00207C20417574686F728B
:104010003A206D7A6F6C696E20284D5A426F742970
:1040200020657420616C2E0A00323031382D303713
:104030002D333100204C61737420557064617465B8
:10404000643A20006275676669782D312E312E78CA
:104050000A004D61726C696E0020536F667477615F
:1040600072652052657365740A0020576174636835
:10407000646F672052657365740A002042726F771F
:104080006E206F75742052657365740A0020457840
:104090007465726E616C2052657365740A00506FAE
:1040A00077657255700A0073746172740A006175E5
:1040B000746F25692E67006572726F72207772695E
:1040C00074696E6720746F2066696C650A00456EBE
:1040D0006473746F7073202563202563202563202B
:1040E000256300205A3A0020593A0020583A0065CA
:1040F0006E6473746F7073206869743A2000446F43
:104100006E6520736176696E672066696C652E0A3C
:10411000004D32390024F4D43050C38E20C2A24066
:1041200017828B7011127A910D816CD90AA861E106
:1041300008C7586607615143061E4B5D05C145A778
:10414000041A411104093D9803713931034036DBEB
:104150000265339102D4305402802E1D02632CEE8E
:1041600001752AC501B028A001102781018F25649F
:10417000012B244B01E0223401AC211F018D200DC5
:1041800001801FFC00841EED00971DDF00B81CD2CB
:1041900000E61BC600201BBC00641AB200B219A8BE
:1041A000000A19A0006A189900D117910040178BD6
:1041B00000B516840031167E00B31579003A1573E8
:1041C00000C7146F0058146A00EE1366008813636A
:1041D0000025135E00C7125B006C125700151254C5
:1041E00000C111510070114F0021114B00D6104930
:1041F000008D1047004610440002104200C00F40DE
:1042000000800F3E00420F3C00060F3B00CB0E38F3
:1042100000930E37005C0E3500270E3400F30D328C
:1042200000C10D3100900D3000600D2E00320D2DBB
:1042300000050D2C00D90C2B00AE0C2900850C2993
:10424000005C0C2700350C27000E0C2600E80B2420
:1042500000C40B2400A00B23007D0B23005A0B216C
:1042600000390B2100180B2000F80A1F00D90A1E84
:1042700000BB0A1E009D0A1D00800A1D00630A1C67
:1042800000470A1B002C0A1B00110A1A00F7091A22
:1042900000DD091900C4091900AB091900920917BA
:1042A000007B091800630917004C0916003609162F
:1042B00000200916000A091500F5081500E0081489
:1042C00000CC081400B8081400A4081400900813C7
:1042D000007D0812006B08130058081200460812EF
:1042E0000034081100230811001208110001081100
:1042F00000F0071000E0071000D0071000C0071002
:1043000000B0070F00A107100091070E0083070FF0
:104310000074070F0065070E0057070E0049070ECF
:10432000003B070D002E070E0020070D0013070DA0
:104330000006070D00F9060C00ED060D00E0060C66
:1043400000D4060C00C8060C00BC060C00B0060C1D
:1043500000A4060B0099060C008D060B0082060BCC
:104360000077060B006C060B0061060A0057060B6F
:10437000004C060A0042060A0038060A002E060A09
:104380000024060A001A060A001006090007060A99
:1043900000FD050900F4050900EB050900E2050927
:1043A00000D9050900D0050900C7050900BE0509A7
:1043B00000B5050800AD050800A50509009C050825
:1043C00000940508008C050800840508007C050899
:1043D00000740508006C050700650508005D050709
:1043E00000560508004E0507004705070040050870
:1043F0000038050700310507002A050700230507D7
:10440000001C050600160507000F05070008050635
:104410000002050700FB040600F5040700EE040691
:1044200000E8040600E2040700DB040600D50406E9
:1044300000CF040600C9040600C3040600BD04063C
:1044400000B7040600B1040500AC040600A604068B
:1044500000A00405009B04060095040500900406D6
:10446000008A04050085040500800406007A04051E
:104470000075040500700405006B04050066040562
:1044800000610405005C04050057040500520405A2
:10449000004D04050048040500430405003E0404E3
:1044A000003A04050035040500300404002C04051E
:1044B0000027040400230405001E0404001A040459
:1044C0000016040500110404000D0404000904058D
:1044D000000404040000040400FC030400F80304C6
:1044E00000F4030400F0030400EC030400E80304F8
:1044F00000E4030400E0030400DC030400D8030428
:1045000000D4030400D0030400CC030400C8030358
:1045100000C503030024F404D9201BC40C5C0E98CE
:1045200004C4095F0265077101F405F900FB04B3D7
:104530000048048700C10369005803550003034580
:1045400000BE023A008402310053022A00290225EB
:104550000004022000E4011C00C8011900AF01178B
:104560000098011400840113007101100061011012
:104570000051010E0043010D0036010B002B010B11
:104580000020010B00150109000C010900030108BE
:1045900000FB000800F3000800EB000700E4000641
:1045A00000DE000600D8000600D2000600CC0005A0
:1045B00000C7000500C2000500BD000400B90004EA
:1045C00000B5000400B1000400AD000400A900041F
:1045D00000A5000300A20003009F0004009B00034D
:1045E0000098000300950002009300030090000370
:1045F000008D0002008B000300880002008600028C
:104600000084000300810002007F0002007D0002A0
:10461000007B0002007900020077000100760002B2
:10462000007400020072000100710002006F0002BD
:10463000006D0001006C0002006A000100690002C8
:1046400000670001006600010065000100640002CF
:10465000006200010061000100600001005F0002D3
:10466000005D0001005C0001005B0001005A0001D8
:1046700000590001005800010057000100560001D8
:1046800000550001005400010053000000530001D8
:10469000005200010051000100500001004F0001D4
:1046A000004E0000004E0001004D0001004C0001D2
:1046B000004B0000004B0001004A000100490001CE
:1046C00000480000004800010047000100460000CB
:1046D00000460001004500000045000100440001C3
:1046E00000430000004300010042000000420001BE
:1046F000004100000041000100400001003F0000B7
:10470000003F0001003E0000003E0001003D0000AF
:10471000003D0001003C0000003C0000003C0001A6
:10472000003B0000003B0001003A0000003A00019D
:104730000039000000390001003800000038000096
:10474000003800010037000000370001003600008B
:104750000036000000360001003500000035000082
:104760000035000100340000003400000034000176
:10477000003300000033000000330001003200006D
:104780000032000000320001003100000031000062
:104790000031000100300000003000000030000156
:1047A000002F0000002F0000002F0000002F00014C
:1047B000002E0000002E0000002E0001002D000041
:1047C000002D0000002D0000002D0001002C000035
:1047D000002C0000002C0000002C0001002B000029
:1047E000002B0000002B0000002B0001002A00001D
:1047F000002A0000002A0000002A00010029000011
:104800000029000000290000002900000029000103
:1048100000280000002800000028000000280000F8
:1048200000280001002700000027000000270000EA
:1048300000270000002700010026000000260000DD
:1048400000260000002600000026000100250000D0
:1048500000250000002500000025000000250000C4
:1048600000250001002400000024000000240000B6
:1048700000240000002400010023000000230000A9
:10488000002300000023000000230000002300009C
:10489000002300010022000000220000002200008E
:1048A0000022000000220000002200010021000080
:1048B0000021000000210000002100000021000074
:1048C0000021000000210001002000000020000065
:1048D0000020000000200000002000000020000058
:1048E0000020000000200001001F0000001F000049
:1048F000001F0000001F0000001F0000001F00003C
:10490000001F0001001E0000001E0000001E00002D
:10491000001E000000C23100001C260000F4190037
:1049200000D80F0000EB080000C004000075020072
:104930000040010000496E76616C6964206D617011
:1049400020747970652E0A0A003F28462961646543
:104950002068656967687420666F7220426564200C
:104960004C6576656C20436F7272656374696F6E17
:10497000206E6F7420706C61757369626C652E0AAD
:104980000A003F43616E2774206163746976617425
:104990006520616E64206465616374697661746525
:1049A000206174207468652073616D652074696D81
:1049B000652E0A0A00426F7468205820262059206C
:1049C0006C6F636174696F6E73206D7573742062B0
:1049D00065207370656369666965642E0A0A003F25
:1049E000496E76616C696420677269642073697AC4
:1049F0006520284A292073706563696669656420AB
:104A000028322D39292E0A0A003F2850296861735F
:104A1000652076616C756520696E76616C696420CD
:104A200028302D36292E0A0A003F28562965726241
:104A30006F7365206C6576656C20697320696D7095
:104A40006C61757369626C652028302D34292E0ADB
:104A50000A003F285229657065746974696F6E2079
:104A6000636F756E7420696E76616C69642028319D
:104A70002B292E0A0A00446F696E672047323900DD
:104A80002073616E69747920636865636B7320704D
:104A900061737365642E0A00202073746174653A33
:104AA000004B696C6C2070696E206F6E203A00209C
:104AB0002000592D41786973204D65736820506F2F
:104AC000696E74732061743A2000202000582D41D3
:104AD000786973204D65736820506F696E74732018
:104AE00061743A20004D4553485F595F444953541F
:104AF0002020004D4553485F585F444953542020BF
:104B000000475249445F4D41585F504F494E5453FE
:104B10005F59202000475249445F4D41585F504F34
:104B2000494E54535F582020004D4553485F4D4136
:104B3000585F592020282828282828333930292050
:104B40002F203229202B202833393029202F2032C2
:104B500029202D2028313529293C28333930293F77
:104B60002828282833393029202F203229202B20AB
:104B70002833393029202F203229202D2028313583
:104B800029293A283339302929293D004D455348F0
:104B90005F4D41585F582020282828282828343085
:104BA0003029202F203229202B2028343030292072
:104BB0002F203229202D2028313529293C2828343E
:104BC0003030202B203829293F282828283430301D
:104BD00029202F203229202B202834303029202F43
:104BE000203229202D2028313529293A282834300F
:104BF00030202B2038292929293D004D4553485F75
:104C00004D494E5F5920202828282828283339303C
:104C100029202F203229202D202833393029202FF8
:104C2000203229202B203135293E2830293F2828C1
:104C3000282833393029202F203229202D202833CD
:104C4000393029202F203229202B203135293A28AC
:104C5000302929293D004D4553485F4D494E5F5845
:104C6000202028282828282834303029202F2032B6
:104C700029202D202834303029202F203229202BA4
:104C8000203135293E2838293F282828283430303B
:104C900029202F203229202D202834303029202F80
:104CA000203229202B203135293A28382929293D3D
:104CB000007A70726F62655F7A6F66667365743AC8
:104CC0002000706C616E6E65722E7A5F666164653D
:104CD0005F686569676874203A200055424C206F10
:104CE000626A65637420636F756E743A2000204CAD
:104CF0006F616465642E004D65736820004E6F20FF
:104D00004D657368204C6F616465642E003A200025
:104D1000454550524F4D2044756D703A0A0020664B
:104D2000726F6D2063757272656E74206D65736845
:104D30002E0A005375627472616374696E67206D28
:104D400065736820696E20736C6F7420003F557323
:104D500065203020746F20003F496E76616C696475
:104D60002073746F7261676520736C6F742E0A0014
:104D70003F557365203020746F20003F53746F726D
:104D800061676520736C6F7420232072657175698B
:104D90007265642E0A003F454550524F4D20737492
:104DA0006F72616765206E6F7420617661696C61F6
:104DB000626C652E0A004D657368204564697469EC
:104DC0006E672053746F7070656400446F6E652069
:104DD00045646974696E67204D6573680A00446FA5
:104DE0006E652045646974696E67204D657368005F
:104DF00046696E652054756E696E67204D657368EF
:104E00000028582C5929206F7574736964652070C7
:104E100072696E7461626C65207261646975732E6B
:104E20000A004F6666736574206F7574206F662084
:104E3000626F756E64732E20283020746F203130BD
:104E40006D6D290A0A00627573793A207061757375
:104E5000656420666F7220696E7075740A006275F1
:104E600073793A2070617573656420666F7220757E
:104E70007365720A00627573793A2070726F6365A8
:104E80007373696E670A004B494C4C45442E2000F1
:104E90004B494C4C20636175736564206279204BEB
:104EA000494C4C20627574746F6E2F70696E0A00E5
:104EB0004B494C4C45442E20004B494C4C206361DF
:104EC0007573656420627920746F6F206D756368F7
:104ED00020696E6163746976652074696D65202D43
:104EE0002063757272656E7420636F6D6D616E64A0
:104EF0003A2000506C6561736520726573657400BB
:104F00005052494E5445522048414C54454400505B
:104F100072696E7465722068616C7465642E206BB2
:104F2000696C6C28292063616C6C6564210A0065DA
:104F30006E7175657565696E67202200000000411D
:104F400000000000000080C000004842000048420D
:104F500000008040000000005761726E696E673A81
:104F600020486F6D696E672042756D7020446976C8
:104F700069736F72203C20310A000202040000A015
:104F8000400000A040000000400000C8430000C3F3
:104F90004300006F43FFFFFF0000211042206330F9
:104FA0008440A550C660E770088129914AA16BB181
:104FB0008CC1ADD1CEE1EFF1311210027332522229
:104FC000B5529442F772D662399318837BB35AA3D1
:104FD000BDD39CC3FFF3DEE36224433420040114F9
:104FE000E664C774A44485546AA54BB52885099521
:104FF000EEE5CFF5ACC58DD55336722611163006C9
:10500000D776F6669556B4465BB77AA71997388770
:10501000DFF7FEE79DD7BCC7C448E5588668A77888
:105020004008611802282338CCC9EDD98EE9AFF9C0
:10503000488969990AA92BB9F55AD44AB77A966A68
:10504000711A500A333A122AFDDBDCCBBFFB9EEB10
:10505000799B588B3BBB1AABA66C877CE44CC55C38
:10506000222C033C600C411CAEED8FFDECCDCDDD60
:105070002AAD0BBD688D499D977EB66ED55EF44E08
:10508000133E322E511E700E9FFFBEEFDDDFFCCFB0
:105090001BBF3AAF599F788F8891A981CAB1EBA104
:1050A0000CD12DC14EF16FE18010A100C230E32080
:1050B0000450254046706760B9839893FBA3DAB328
:1050C0003DC31CD37FE35EF3B1029012F322D232D0
:1050D0003542145277625672EAB5CBA5A8958985F8
:1050E0006EF54FE52CD50DC5E234C324A014810420
:1050F0006674476424540544DBA7FAB79987B897C8
:105100005FE77EF71DC73CD7D326F2369106B0166F
:1051100057667676154634564CD96DC90EF92FE987
:10512000C899E9898AB9ABA94458654806782768BF
:10513000C018E1088238A3287DCB5CDB3FEB1EFB67
:10514000F98BD89BBBAB9ABB754A545A376A167A0F
:10515000F10AD01AB32A923A2EFD0FED6CDD4DCD37
:10516000AABD8BADE89DC98D267C076C645C454C5F
:10517000A23C832CE01CC10C1FEF3EFF5DCF7CDF07
:105180009BAFBABFD98FF89F176E367E554E745EAF
:10519000932EB23ED10EF01E7C3C3E5E2B3D3F2F47
:1051A0005B5D3B2C2A225C004572726F7220777225
:1051B0006974696E6720746F20454550524F4D21C8
:1051C0000A00473238004F7574707574204D65734E
:1051D00068204D6170004F6666205072696E74657C
:1051E00072204261636B75700047323920532D3154
:1051F000004F757470757420666F722043535600AB
:10520000473239205431004F757470757420666FC1
:105210007220486F73740047323920543000556E45
:10522000696669656420426564204C6576656C69D1
:105230006E67004D657368204C6576656C696E67B6
:105240000045646974204D6573680056616C69643B
:10525000617465204D657368004D616E75616C6C9D
:1052600079204275696C64204D6573680047323956
:1052700020493939390A47323920503220422054E6
:1052800030004275696C64204D65736800556E6925
:105290006669656420426564204C6576656C696E5C
:1052A000670037205361766520426564204D657341
:1052B0006800362046696E652054756E6520416C25
:1052C0006C0047323920503420523939392054008B
:1052D000352056616C6964617465204D65736800A2
:1052E000342046696E652054756E6520416C6C00F3
:1052F0004732392050342052393939205400332074
:1053000056616C6964617465204D65736800322074
:10531000536D6172742046696C6C2D696E00473262
:10532000392050332054300031204275696C64209C
:10533000436F6C64204D657368004732380A47320A
:105340003920503100556E69666965642042656494
:10535000204C6576656C696E67004661646520481F
:1053600065696768740046616465204865696768B7
:1053700074004661646520486569676874004F750C
:10538000747075742055424C20496E666F00473228
:105390003920570055424C20546F6F6C73004F7585
:1053A00074707574204D657368204D6170004D6593
:1053B00073682053746F72616765004D6573682070
:1053C0004564697400537465702D42792D5374657A
:1053D000702055424C004465616374697661746560
:1053E0002055424C004732392044004163746976AD
:1053F0006174652055424C0047323920410050729B
:105400006570617265004D343238005072656865B0
:10541000617420504C4100436F6F6C646F776E0075
:105420004368616E67652066696C616D656E7400C6
:1054300044697361626C6520737465707065727322
:10544000004D38340053657420686F6D65206F66B9
:1054500066736574730050726568656174204142BB
:1054600053004C6576656C20636F726E65727300D5
:10547000556E696669656420426564204C65766591
:105480006C696E6700486F6D65205A00473238209E
:105490005A00486F6D65205900473238205900483E
:1054A0006F6D652058004732382058004175746F81
:1054B00020686F6D6500473238004D6F766520615A
:1054C000786973004D61696E0053746570732F6D58
:1054D0006D004A65726B00416363656C657261744F
:1054E000696F6E0056656C6F636974790050726FF6
:1054F0006265205A204F66667365740050726F6251
:1055000065205A204F66667365740050726F62653D
:10551000205A204F666673657400436F6E74726F15
:105520006C004C6F6164206D6D004C6F6164206D88
:105530006D004C6F6164206D6D00556E6C6F616421
:10554000206D6D00556E6C6F6164206D6D00556E41
:105550006C6F6164206D6D0046696C2E204469613A
:105560002E0046696C2E204469612E004F6666004D
:105570004F6E20004520696E206D6D330045206917
:105580006E206D6D3300416476616E6365204B0063
:10559000416476616E6365204B00416476616E63A1
:1055A00065204B00436F6E74726F6C0043616E6ECA
:1055B0006F7420656E746572207375626469723AE7
:1055C0002000022E2E004D61696E00004578747235
:1055D0007564656420746F74616C3A2000256C6496
:1055E0002E25696D00004C6F6E67657374206A6FBD
:1055F000622074696D653A200000546F74616C20FC
:105600007072696E742074696D653A2000436F6D25
:10561000706C657465643A20005072696E74204342
:105620006F756E743A20004D61782054656D703A44
:1056300020313530004D696E2054656D703A20354B
:1056400000544265643A4550434F53203130304B4B
:10565000004D61782054656D703A20323735004D29
:10566000696E2054656D703A20350054303A2041FF
:1056700054432031303447542D32005053553A2092
:1056800047656E657269630050726F746F636F6C0B
:105690003A20312E3000426175643A203131353282
:1056A00030300052414D505320312E3400556E6938
:1056B0006669656420426564204C6576656C696E38
:1056C00067004578747275646572733A20310068BA
:1056D0007474703A2F2F6D61726C696E66772E6FDD
:1056E00072670056623A4E6F762031362032303182
:1056F0003900323031382D30372D33310062756743
:105700006669782D312E312E78004D61726C696E8C
:10571000005072696E746572205374617473005422
:105720006865726D6973746F727300426F61726441
:1057300020496E666F005072696E74657220496E02
:10574000666F004D61696E004261627973746570C5
:10575000205A004D65736820456469746F72004378
:1057600068616E67652066696C616D656E74004284
:1057700061627973746570205A00466C6F770046D9
:105780006C6F7700466C6F770046616E20737065B2
:1057900065640046616E2073706565640046616EE5
:1057A0002073706565640042656400426564004270
:1057B0006564004E6F7A7A6C65004E6F7A7A6C651C
:1057C000004E6F7A7A6C65004661646520486569B1
:1057D000676874004661646520486569676874009D
:1057E0004661646520486569676874005370656543
:1057F00064005370656564005370656564004D61B5
:10580000696E005072656865617420504C41204596
:105810006E64005072656865617420504C410050A0
:1058200072656865617420504C4120426564005087
:1058300072657061726500507265686561742041BF
:10584000425320456E640050726568656174204162
:105850004253005072656865617420414253204292
:1058600065640050726570617265004261636B002F
:105870004E65787420636F726E657200473239200E
:105880005031004D31303920532569004D313930C8
:105890002053256900473238004275696C64204303
:1058A0007573746F6D204D65736800426564205494
:1058B000656D70004265642054656D7000426564DA
:1058C0002054656D7000486F74656E642054656D7A
:1058D0007000486F74656E642054656D7000486F89
:1058E00074656E642054656D70004275696C642047
:1058F0004D657368002E25690047323920503620E7
:1059000043202D00496E666F2073637265656E00DB
:1059100048656967687420416D6F756E74004865ED
:105920006967687420416D6F756E740048656967BA
:10593000687420416D6F756E740045646974204D04
:1059400065736800496E666F2073637265656E00EB
:1059500041646A757374204D657368204865696792
:1059600068740046696E652054756E6520436C6FDF
:1059700073657374004732392050342054004669EF
:105980006E652054756E6520416C6C00473239207D
:105990005034205239393920540055424C20546F2C
:1059A0006F6C7300454550524F4D206461746173B4
:1059B000697A65206572726F722E0A00290A0020CA
:1059C00062797465733B206372632000536574745D
:1059D000696E67732053746F7265642028005542A6
:1059E0004C2053797374656D207265736574282932
:1059F0000A00206C6F616465642066726F6D2073AD
:105A0000746F726167652E0A004D65736820002E01
:105A10000A003F43616E277420656E61626C6520E9
:105A20000020696E697469616C697A65642E0A0A7E
:105A300000290A002062797465733B206372632039
:105A4000002073746F7265642073657474696E6787
:105A50007320726574726965766564202800202859
:105A600063616C63756C6174656429210A0020218F
:105A70003D2000454550524F4D20435243206D6913
:105A8000736D61746368202D202873746F72656470
:105A90002920002053697A653A2000496E646578B0
:105AA0003A2000204D61726C696E3D563536290AE8
:105AB0000028454550524F4D3D00454550524F4DF1
:105AC0002076657273696F6E206D69736D617463A2
:105AD0006820004D65736820736176656420696E87
