:200000000C945B260C9467BD0C943CBD0C9411BD0C94E6BC0C94BBBC0C9490BC0C9465BCEE
:200020000C943ABC0C9482460C9473460C9464460C948C260C948C260C948C260C948C26D7
:200040000C948C260D94AE2A0C948C260C948C260C948C260C948C260D94B00E0C94F0BBE3
:200060000C948C260C9495480C948C260C948C260C948C260C948C260C948C260C948C26C5
:200080000C948C260C948C260C948C260C948C260C948C260C948C260C948C260C948C26D0
:2000A0000C948C260C948C260C948C260C948C260C948C260C948C260C948C260C948C26B0
:2000C0000C948C260C948C260C948C260C948C260C948C260C948C260C948C260C948C2690
:2000E0000C948C261F9C759C999DC99F1BA126A129A143B946B935B939B93FB97DB94AB9EB
:200100004EB954B958B95CB962B966B96AB97DB970B974B978B90CBB11BB16BB20BB2ABB67
:20012000A3BB34BB3CBB44BB4EBB58BB62BB71BB7BBBA3BB85BB8FBB99BB084AD73B3BCE38
:20014000016E84BCBFFDC12F3D6C74319ABD56833DDA3D00C77F11BED9E4BB4C3E916BAAB5
:20016000AABE000000803F05A84CCDB2D44EB93836A9020C50B9918688083CA6AAAA2ABE12
:20018000000000803F07634236B79BD8A71A39685618AEBAAB558C1D3CB7CC5763BD6DED23
:2001A000FD753EF6177231BF000000803F08000000BE922449123EABAAAA2ABECDCCCC4CB4
:2001C0003E00000080BEABAAAAAA3E00000000BF000000803F0000000000084178D3BB43AC
:2001E00087D1133D190E3CC3BD4282AD2B3E68EC8276BED98FE1A93E4C80EFFFBE01C4FF24
:200200007F3F0000000000000D94C4040D94F3240D949F000D9404230D943E660D943619C2
:200220000D945C010D942C190D94A7030D94DD220D944A650D9478530D94CE260D942402D7
:200240000D94D4060D94671B0D94F5240D94F0240D94FA230D94EA020D94BA040D94BB0487
:200260000D9472540D94B5310D9400234E414E494E495459494E46CDCCCC3D0AD7233C178C
:20028000B7D13877CC2B329595E6241FB14F0A000020410000C84200401C4620BCBE4CCAE4
:2002A0001B0E5AAEC59D7400407A10F35A00A0724E18090010A5D4E80000E8764817000071
:2002C000E40B54020000CA9A3B000000E1F505000080969800000040420F000000A08601F9
:2002E000000000102700000000E803000000006400000000000A000000000001000000006D
:20030000002C76D888DC674F0823DFC1DFAE59E1B1B796E5E3E453C63AE651997696E8E610
:20032000C28426EB898C9B62ED407C6FFCEFBC9C9F40F2BAA56FA5F490055A2AF75C936B57
:200340006CF9676DC11BFCE0E40D47FEF520E6B500D0ED902E0300943577050080841E08D9
:200360000000204E0A000000C80C333333330F986E12831141EF8D2114893BE65516CFFED6
:20038000E6DB18D1844B381BF77C1D901DA4BBE424203284725E228100C9F124ECA1E53D17
:2003A00027434F4D4D554E49434154494F4E0044525952554E004552524F525300494E46A2
:2003C0004F004543484F0047322F47332062616420706172616D65746572730A00536C65C4
:2003E00065702E2E2E00205A3A200020593A200042656420583A20004D65736820706F6925
:200400006E742063616E6E6F74206265207265736F6C7665640A00526573756D696E672078
:200420007072696E740056623A41756720203920323031382072656164792E00436C69633E
:200440006B20746F20726573756D652E2E2E004E6F206D6F76652E00456E642066696C655A
:20046000206C6973740A00426567696E2066696C65206C6973740A0046696C652064656C36
:20048000657465643A0044656C6574696F6E206661696C65642C2046696C653A20006F70C2
:2004A000656E206661696C65642C2046696C653A20005072696E742074696D653A20005038
:2004C000726F7465637465642050696E0A006F6E2E0A006F66662E0A00473236204465620F
:2004E00075672000C203BD03B603AF03A1036F66660044454255473A004B494C4C45442EAD
:2005000020004D31313320530042656420646F6E652E0020573A00426564204865617469A0
:200520006E672E0056623A4175672020392032303138204F66662E00454D455247454E4396
:20054000595F50415253455200434153455F4C494748545F4252494748544E455353005477
:200560004F47474C455F4C494748545300534F4654574152455F504F574552004255494C60
:20058000445F50455243454E54004C4556454C494E475F44415441005A5F50524F424500A7
:2005A0004155544F4C4556454C005052494E545F4A4F420050524F47524553530041555464
:2005C0004F5245504F52545F54454D5000564F4C554D455452494300454550524F4D005336
:2005E000455249414C5F584F4E5F584F4646004649524D574152455F4E414D453A4D617271
:200600006C696E20312E312E3820284769746875622920534F555243455F434F44455F558E
:20062000524C3A68747470733A2F2F6769746875622E636F6D2F4D61726C696E4669726D07
:20064000776172652F4D61726C696E2050524F544F434F4C5F56455253494F4E3A312E3079
:20066000204D414348494E455F545950453A56623A41756720203920323031382045585406
:2006800052554445525F434F554E543A3120555549443A63656465326132662D3431613213
:2006A0002D343734382D396231322D6335356336326633363766660A002F2F20007A5F6DA6
:2006C000696E3A2000795F6D696E3A2000785F6D696E3A20005265706F7274696E672065BF
:2006E0006E6473746F70207374617475730A004D31343520533C696E6465783E206F757430
:20070000206F662072616E67652028302D31290A00205A00205900580020204D61783A20A3
:2007200000205A00205900580020204D696E3A20004F666600536F667420656E6473746F4C
:2007400070733A2000000136372603FF3C3D380EFF2E303E12FFFF0C0B05FFFF081A1C18EC
:20076000FFFF0B440A0643FFFFFFFFFFFF20643A0020693A0020703A0020643A0020693A13
:200780000020703A0043290A0061626C656420286D696E2074656D702000436F6C64206598
:2007A000787472756465732061726520004B64200023646566696E65202044454641554C64
:2007C000545F004B69200023646566696E65202044454641554C545F004B70200023646599
:2007E00066696E65202044454641554C545F00504944204175746F74756E652066696E699B
:2008000073686564212050757420746865206C617374204B702C204B6920616E64204B6488
:2008200020636F6E7374616E74732066726F6D2062656C6F7720696E746F20436F6E6669C5
:200840006775726174696F6E2E680A00504944204175746F74756E65206661696C65642197
:200860002074696D656F75740A00544845524D414C2052554E4157415900546865726D6192
:200880006C2052756E617761790048656174696E67206661696C65640048656174696E67E0
:2008A000206661696C656400504944204175746F74756E65206661696C6564212054656D75
:2008C000706572617475726520746F6F20686967680A00204B643A2000204B693A200020FD
:2008E0004B703A20000A20436C617373696320504944200A002054753A2000204B753A2053
:2009000000206D61783A2000206D696E3A200020643A200020626961733A20004D657368D5
:2009200020706F696E742063616E6E6F74206265207265736F6C7665640A004D3432312051
:20094000696E636F727265637420706172616D657465722075736167650A003A2000207ABA
:200960005F6D696E3A20202D3230207A5F6D61783A202032300A0050726F6265205A204FC5
:200980006666736574004E6F2063617365206C696768740A00416374697665204578747265
:2009A000756465723A2000556E6B6E6F776E20636F6D6D616E643A2022004D6573682056BF
:2009C000616C69646174696F6E2053746F707065642E00696E206D6F76655F746F282920D4
:2009E000666565645F76616C756520666F722058593A004C656176696E6720473236004799
:200A000032362048656174696E67204E6F7A7A6C652E004732362048656174696E672042CD
:200A200065642E00446F6E65205072696D696E6700446F6E65205072696D696E6700466918
:200A4000786564204C656E677468205072696D652E00557365722D436F6E74726F6C6C650A
:200A600064205072696D65002C2065793D0029202D3E202865783D002C2073793D002043A0
:200A80006F6E6E656374696E67207769746820766572746963616C206C696E652028737840
:200AA0003D002C2065793D0029202D3E202865783D002C2073793D0020436F6E6E6563741D
:200AC000696E67207769746820686F72697A6F6E74616C206C696E65202873783D004C65A9
:200AE0006176696E6720473236002C2079693D00202020446F696E6720636972636C6520A4
:200B000061743A202878693D003F53706563696669656420582C5920636F6F7264696E6129
:200B20007465206F7574206F6620626F756E64732E0A003F28522965706561742076616C38
:200B40007565206E6F7420706C61757369626C653B206D757374206265206174206C656117
:200B6000737420312E0A003F537065636966696564206E6F7A7A6C652074656D706572616A
:200B800074757265206E6F7420706C61757369626C652E0A003F5370656369666965642020
:200BA00066696C616D656E742073697A65206E6F7420706C61757369626C652E0A003F53EE
:200BC0007065636966696564207072696D65206C656E677468206E6F7420706C61757369DE
:200BE000626C652E0A003F537065636966696564206E6F7A7A6C652073697A65206E6F74B1
:200C000020706C61757369626C652E0A003F53706563696669656420526574726163746992
:200C20006F6E204D756C7469706C696572206E6F7420706C61757369626C652E0A003F5275
:200C4000657472616374696F6E204D756C7469706C696572206D757374206265207370654C
:200C60006369666965642E0A003F537065636966696564206C617965722068656967687437
:200C8000206E6F7420706C61757369626C652E0A003F537065636966696564206265642094
:200CA00074656D7065726174757265206E6F7420706C61757369626C652E0A00473236202D
:200CC000636F6D6D616E6420737461727465642E2057616974696E6720666F722068656148
:200CE0007465722873292E0A002569730025696D20256973002569682025696D202569735E
:200D000000256964202569682025696D202569730025697920256964202569682025696D45
:200D200020256973004C696E65204E756D626572206973206E6F74204C617374204C696E1D
:200D400065204E756D6265722B312C204C617374204C696E653A20004B494C4C45442E2064
:200D60000053544F505045442E20005072696E7465722073746F7070656420647565207411
:200D80006F206572726F72732E2046697820746865206572726F7220616E64207573652027
:200DA0004D39393920746F20726573746172742E202854656D706572617475726520697313
:200DC0002072657365742E205365742069742061667465722072657374617274696E67299B
:200DE0000A004E6F20436865636B73756D2077697468206C696E65206E756D6265722C2040
:200E00004C617374204C696E653A2000636865636B73756D206D69736D617463682C204CDB
:200E2000617374204C696E653A20004D313130004D33310053442072656164206572726FAD
:200E4000720A00446F6E65207072696E74696E672066696C650A0020496E76616C69642034
:200E6000657874727564657220000000004100000000000080C00000CC430000C343000049
:200E80006B43486F6D6520257325732573206669727374002066697273740A005A005900E6
:200EA0005800486F6D65200050726F62696E67206661696C65640A0050726F62696E6720E0
:200EC0006661696C656400205A3A200020593A200042656420583A2000473238205A204698
:200EE0006F7262696464656E0A00473238205A20466F7262696464656E0020706F7369747A
:200F0000696F6E206F7574206F662072616E67652E0A003F50726F626520005344207072C9
:200F2000696E74696E67206279746520004E6F74205344207072696E74696E670A000000B7
:200F4000004100000000000080C0000048420000484200008040000000005761726E696ECD
:200F6000673A20486F6D696E672042756D702044697669736F72203C20310A0002020400DB
:200F800000A0400000A040000000400000C8430000C34300006F43FFFFFF000021104220FE
:200FA00063308440A550C660E770088129914AA16BB18CC1ADD1CEE1EFF1311210027332CA
:200FC0005222B5529442F772D662399318837BB35AA3BDD39CC3FFF3DEE3622443342004CA
:200FE0000114E664C774A44485546AA54BB528850995EEE5CFF5ACC58DD55336722611168A
:201000003006D776F6669556B4465BB77AA719973887DFF7FEE79DD7BCC7C448E558866881
:20102000A7784008611802282338CCC9EDD98EE9AFF9488969990AA92BB9F55AD44AB77AC9
:20104000966A711A500A333A122AFDDBDCCBBFFB9EEB799B588B3BBB1AABA66C877CE44C49
:20106000C55C222C033C600C411CAEED8FFDECCDCDDD2AAD0BBD688D499D977EB66ED55E89
:20108000F44E133E322E511E700E9FFFBEEFDDDFFCCF1BBF3AAF599F788F8891A981CAB11E
:2010A000EBA10CD12DC14EF16FE18010A100C230E3200450254046706760B9839893FBA3E9
:2010C000DAB33DC31CD37FE35EF3B1029012F322D2323542145277625672EAB5CBA5A895A9
:2010E00089856EF54FE52CD50DC5E234C324A01481046674476424540544DBA7FAB79987A9
:20110000B8975FE77EF71DC73CD7D326F2369106B01657667676154634564CD96DC90EF960
:201120002FE9C899E9898AB9ABA94458654806782768C018E1088238A3287DCB5CDB3FEBE8
:201140001EFBF98BD89BBBAB9ABB754A545A376A167AF10AD01AB32A923A2EFD0FED6CDD28
:201160004DCDAABD8BADE89DC98D267C076C645C454CA23C832CE01CC10C1FEF3EFF5DCFA8
:201180007CDF9BAFBABFD98FF89F176E367E554E745E932EB23ED10EF01E7C3C3E5E2B3D2A
:2011A0003F2F5B5D3B2C2A225C0020746F6F206C6F6E6720657874727573696F6E207072A5
:2011C0006576656E7465640A0020636F6C6420657874727573696F6E2070726576656E7423
:2011E00065640A004572726F722077726974696E6720746F20454550524F4D210A00290AA5
:20120000002062797465733B20637263200053657474696E67732053746F726564202800AA
:2012200055424C2053797374656D20726573657428290A00206C6F616465642066726F6D2B
:201240002073746F726167652E0A004D65736820002E0A0020696E697469616C697A6564A6
:201260002E0A0A003F43616E277420656E61626C652000202863616C63756C617465642916
:20128000210A0020213D2000454550524F4D20435243206D69736D61746368202D20287347
:2012A000746F726564292000290A002062797465733B2063726320002073746F72656420C9
:2012C00073657474696E677320726574726965766564202800204D61726C696E3D563437EA
:2012E000290A0028454550524F4D3D00454550524F4D2076657273696F6E206D69736D6169
:201300007463682000206D65736820736C6F747320617661696C61626C652E0A003F496E5D
:2013200076616C696420736C6F742E0A004B494C4C45442E2000202D20496E76616C69644C
:20134000206578747275646572206E756D62657220210A0000000000000000000000000006
:2013600000000000000000000000000000000000000000000000000000000000000000006D
:20138000000000000000000000000000000000000000000000000000000000000800000045
:2013A000000000000000000000003E000000000000000000000000007F80000000000000F0
:2013C000000000000001FFE0000000000000000000000007FFF00000000000000000000037
:2013E000001FFFFC00000000000000000000003FFFFF0000000000000000000000FFFFFF99
:201400008000000000000000000003FF0F87E000000000000000000007FE0F07F0000000C9
:2014200000000000000007FE1E0FF000000000000000000007FC1E1FF0000000000000005A
:20144000000007F83C1FF03E0F8FFC7F03F87FE007F8783FF03E0F8FFC61860C060007F023
:20146000787FF03E0F8038608406060007E0F07FF03F1F8070608406060007E1E0FFF03B1A
:201480001B80E0618C06060007C1E1FFF03B1B81E07F0C06060007FFC1E1F03BBB81C061C2
:2014A0008C06060007FF83C1F039B3838060CC06060007FF8783F039F3870060CC06060048
:2014C00007FF0787F039F38F0060C406060007FE0F07F038E38FFC60C60C060007FE1E0F82
:2014E000F038E38FFC7F83F8060007FC1E1FF000000000000000000007F83C1FF0000000DC
:2015000000000000000007F8783FF000000000000000000003F0787FE0000000000000005B
:20152000000000FFFFFF80000000000000000000003FFFFF00000000000000000000001FD2
:20154000FFFC000000000000000000000007FFF0000000000000000000000001FFE00000BA
:20156000000000000000000000007F800000000000000000000000003E000000000000002E
:20158000000000000000080000000000000000000000000000000000000000000000000043
:2015A00000000000000000000000000000000000000000000000000000000000000000002B
:2015C0000000000000000000000000000000000000000000000000001FFFFFFFFFFFFF6092
:2015E0000000000001FF400000000000FF8000000000007F83CF00000C303F87FF80000CCE
:20160000301F867980000C000F8C30C7838C30E78C30CFC7CC31F38C30DCECEC33B98C30DE
:20162000D86C6C33198C30D06C0C33198C30D86C0C33198C30DC6C0E3B198C30CF7C079FF3
:20164000198C30C77C038F1940000000000002600000000000061FFFFFFFFFFFF82020507D
:201660006C616E6E657242756666657242797465733A20002046726565204D656D6F7279F4
:201680003A2000436F6D70696C65643A2041756720203920323031380A00207C20417574F8
:2016A000686F723A206D7A6F6C696E20284D5A426F742920657420616C2E0A0032303137C9
:2016C0002D31322D32352031323A303000204C61737420557064617465643A2000312E3144
:2016E0002E380A004D61726C696E0020536F6674776172652052657365740A002057617433
:201700006368646F672052657365740A002042726F776E206F75742052657365740A0020AA
:2017200045787465726E616C2052657365740A00506F77657255700A0073746172740A0025
:201740006572726F722077726974696E6720746F2066696C650A00456E6473746F707320FE
:20176000256320256320256320256300205A3A0020593A0020583A00656E6473746F707360
:20178000206869743A2000446F6E6520736176696E672066696C652E0A004D3239006163E8
:2017A000746976652E0A00696E002053797374656D2076312E30312000202020202E202059
:2017C00020004E414E004353563A0A0A004C43443A0A0A003A0A0A0020666F7220000A4290
:2017E000656420546F706F677261706879205265706F7274003F4D65736820746F6F206277
:20180000696720666F7220454550524F4D2E0A0000446F6E652E0A003F5573652030207463
:201820006F20003F496E76616C69642073746F7261676520736C6F742E0A003F4545505279
:201840004F4D2073746F72616765206E6F7420617661696C61626C652E0A002C20592000A8
:20186000203B20582000205A2000204A20004D343231204920004732392049203939390AF4
:2018800000446F6E652E0A003F557365203020746F20003F496E76616C69642073746F72BD
:2018A00061676520736C6F742E0A003F454550524F4D2073746F72616765206E6F742061D3
:2018C0007661696C61626C652E0A004732392050322066696E69736865642E0A00585920C9
:2018E0006F757473696465207072696E7461626C65207261646975732E0A003F4572726F53
:201900007220696E20427573696E6573732043617264206D6561737572656D656E742E0A5A
:20192000004D616E75616C6C792070726F62696E6720756E726561636861626C65206D65C7
:201940007368206C6F636174696F6E732E0A00292E0A0A0050726F62696E67204D6573689F
:2019600020506F696E747320436C6F7365737420746F2028004D65736820696E76616C6952
:2019800064617465642E2050726F62696E67206D6573682E0A004D657368207A65726F654F
:2019A000642E0A0044656661756C742073746F7261676520736C6F7420302073656C656353
:2019C0007465642E0A00417474656D707420746F2070726F6265206F66662074686520623A
:2019E00065642E0A004C6F6164696E6720746573745F7061747465726E2076616C7565733B
:201A00002E0A0A00496E76616C696420746573745F7061747465726E2076616C75652E20F5
:201A2000282D3120746F2032290A0A004C6F636174696F6E7320696E76616C6964617465A1
:201A4000642E0A0A00456E74697265204D65736820696E76616C6964617465642E0A0A00E5
:201A60004D3530322C204D3530302C204D35303120696E2074686174206F726465722E0AE9
:201A80000A003F456E61626C6520454550524F4D20616E6420696E697420776974680A00C1
:201AA0004D65736820736176656420696E20736C6F74200020736C6F743D00206D65736881
:201AC00065735F656E643D004532454E443D004D657368206C6F616465642066726F6D20C6
:201AE000736C6F74200048617264636F6465642044656661756C742053657474696E677330
:201B0000204C6F616465640A00B80B0000B80B0000640000001027000000009643000096C2
:201B2000430000A040000096420000A0420000A0420000C8430080CF4320204D38353120FE
:201B40005A005A2D50726F6265204F666673657420286D6D293A0A00204400204900202089
:201B60004D33303420500020440020490020204D3330312050005049442073657474696E1F
:201B800067733A0A0020460020420020480020204D3134352053004D6174657269616C200E
:201BA00068656174757020706172616D65746572733A0A00206D65736865732E0A0A0045DA
:201BC0004550524F4D2063616E20686F6C6420000A416374697665204D65736820536C6FE8
:201BE000743A2000205A0020204D3432302053003A0A00205A0020590020204D323036208B
:201C00005800486F6D65206F66667365743A0A00204500205A0020590020580020420020A6
:201C2000540020204D323035205300416476616E6365643A20533C6D696E5F666565647211
:201C40006174653E20543C6D696E5F74726176656C5F66656564726174653E20423C6D69DA
:201C60006E5F7365676D656E745F74696D655F75733E20583C6D61785F78795F6A65726BBC
:201C80003E205A3C6D61785F7A5F6A65726B3E20453C6D61785F655F6A65726B3E0A0020CA
:201CA000540020520020204D323034205000416363656C65726174696F6E2028756E6974F9
:201CC000732F7332293A20503C7072696E745F616363656C3E20523C726574726163745FEA
:201CE000616363656C3E20543C74726176656C5F616363656C3E0A00204500205A00205979
:201D00000020204D3230312058004D6178696D756D20416363656C65726174696F6E20281B
:201D2000756E6974732F7332293A0A00204500205A0020590020204D3230332058004D618F
:201D400078696D756D206665656472617465732028756E6974732F73293A0A002045002071
:201D60005A0020590020204D393220580053746570732070657220756E69743A0A00202046
:201D80004D3230302044300A0020204D3230302044002044697361626C65640A0046696CE6
:201DA000616D656E742073657474696E67733A0020204D3134392043203B20556E69747327
:201DC00020696E2043656C736975730A002020473231202020203B20556E69747320696E3B
:201DE000206D6D0A004D65736820696E76616C6964617465642E0A00496E666F2073637281
:201E000065656E00496E76616C696461746520436C6F7365737400473239204900496E7644
:201E2000616C696461746520416C6C00436F6E74696E756520426564204D657368004732FF
:201E40003920503120430046696C6C2D696E204D657368004275696C6420436F6C64204D0E
:201E6000657368004732380A473239205031004275696C6420437573746F6D204D657368DC
:201E8000004275696C6420414253204D657368004732380A4D31393020533131300A4D3180
:201EA000303920533234300A4732392050310A4D3130342053300A4D3134302053300042F3
:201EC00075696C6420504C41204D657368004732380A4D313930205337300A4D313039201D
:201EE000533138300A4732392050310A4D3130342053300A4D3134302053300055424C2078
:201F0000546F6F6C73004D313137204D6573682025692073617665642E00473239205325C4
:201F200069004D313137204D657368202569206C6F616465642E00473239204C2569005341
:201F400061766520426564204D657368004C6F616420426564204D657368004D656D6F7215
:201F60007920536C6F74004D656D6F727920536C6F74004D656D6F727920536C6F74004967
:201F80006E697469616C697A6520454550524F4D004E6F2073746F7261676500556E69662C
:201FA00069656420426564204C6576656C696E6700486F6D696E672058595A00473239200F
:201FC000503420582573205925732052256900202D2D2D2D2D00473238004F757470757419
:201FE000204D657368204D6170004F6666205072696E746572204261636B757000473239AF
:2020000020532D31004F757470757420666F722043535600473239205431004F7574707577
:202020007420666F7220486F73740047323920543000556E696669656420426564204C65F1
:2020400076656C696E67004D657368204C6576656C696E670045646974204D65736800568F
:20206000616C6964617465204D657368004D616E75616C6C79204275696C64204D657368DF
:202080000047323920493939390A4732392050322042205430004275696C64204D65736879
:2020A00000556E696669656420426564204C6576656C696E670000002100240027002A0045
:2020C0002D003000330001010000040107010A0100002200250028002B002E003100340029
:2020E00002010000050108010B01000020002300260029002C002F0032000001000003019E
:202100000601090105050505070508080808020202020A0A0808040404040101010101012C
:2021200001010303030303030303040707070C0C0C0C0C0C0C0C02020202060606060606E0
:2021400006060B0B0B0B0B0B0B0B0102102020080810204010204080020102010804020143
:202160000102040810204080804020100804020180040201804020100804020108040201CC
:202180000102040810204080010204081020408000000A0B02090C0D0E08070304010000E3
:2021A0000000000000000000000000000000000000000000000000000000000012111000EC
:2021C0000000000000000000000000000000000000000000000025753A25303275002530DA
:2021E00032753A253032750025756420253032753A25303275005A0059005800092000007E
:2022000000000000000000000000007FFFE00000000000000000000000007000E000000010
:2022200000000000000000000061F86000000000000000000000000041F82000000000008C
:202240000000000000000040F020000000000000000000000000406020000000000000006E
:2022600000000000005801A07F80000000000000004104005C63A0FFC00000000000000003
:202280002082005EF7A0FFC0000000000000002082005EF7A0FFC00000000000000041044D
:2022A000005C63A07F80000000000000008208005801A07F800000000000000104100040E9
:2022C0006020FFC00000000000000104100040F020FFC00000000000000082080041F820B8
:2022E000FFC00000000000000041040061F8603F00000000000000000000007000E01E0074
:2023000000000000000001FFFF807FFFE00C0000000000000001FFFF800000000000000055
:2023200000000000000000007FFFE00000000000000000000000007000E0000000000000EF
:20234000000000000000630C60000000000000000000000000470E20000000000000000039
:20236000000000004F0F200000000000000000000000005F0FA000000000000000000000D1
:2023800000005E07A07F8000000000000000410400406020FFC000000000000000208200D3
:2023A00040F020FFC00000000000000020820040F020FFC000000000000000410400406078
:2023C000207F80000000000000008208005E07A07F80000000000000010410005F0FA0FF2E
:2023E000C0000000000000010410004F0F20FFC000000000000000820800470E20FFC0000D
:20240000000000000000410400630C603F00000000000000000000007000E01E00000000FB
:2024200000000001FFFF807FFFE00C0000000000000001FFFF8000000000060900FE000027
:2024400000000001090008FE000005080806000040F0C88888987810050808060000C0F856
:202460008888888888F80505050600012030F830200508080600002070F820202020E00506
:2024800009090600FF2070A8A8B8888870200509090600FFE080C0B0A8283028280509099A
:2024A0000600FFF8A88888888888A8F8050A0A0600FE205050505088A8A8887003030306D3
:2024C000000340A0404261636B004E65787420636F726E657200473239205031004D31301F
:2024E0003920532569004D3139302053256900473238004275696C6420437573746F6D205E
:202500004D657368004265642054656D70004265642054656D70004265642054656D7000EB
:20252000486F74656E642054656D7000486F74656E642054656D7000486F74656E64205495
:20254000656D70004275696C64204D657368002E2569004732392050362043202D00496E21
:20256000666F2073637265656E0048656967687420416D6F756E740048656967687420413F
:202580006D6F756E740045646974204D65736800496E666F2073637265656E0041646A7525
:2025A0007374204D657368204865696768740046696E652054756E6520436C6F73657374D3
:2025C0000047323920503420540046696E652054756E6520416C6C004732392050342052F2
:2025E00039393920540055424C20546F6F6C73004732380A4732362043204225692048255E
:2026000069205000496E666F2073637265656E0056616C696461746520437573746F6D20D0
:202620004D6573680056616C696461746520414253204D657368004732380A473236204373
:202640002042313130204832343020500056616C696461746520504C41204D6573680047FD
:2026600032380A473236204320423730204831383020500055424C20546F6F6C730047320D
:2026800039204A2569004C6576656C204D657368005369646520506F696E74730053696422
:2026A0006520506F696E7473005369646520506F696E74730055424C20546F6F6C73004999
:2026C0006E666F2073637265656E0047726964204D657368204C6576656C696E6700332D2E
:2026E000506F696E74204C6576656C696E6700473239204A300055424C20546F6F6C73001A
:20270000473239205033205220432E25690047323920503320543000496E666F20736372E6
:2027200065656E004D616E75616C2046696C6C2D696E0047323920503220422054300053AB
:202740006D6172742046696C6C2D696E0046696C6C2D696E20416D6F756E740046696C6C74
:202760002D696E20416D6F756E74004275696C64204D657368003720536176652042656413
:20278000204D65736800362046696E652054756E6520416C6C004732392050342052393985
:2027A00039205400352056616C6964617465204D65736800342046696E652054756E65208E
:2027C000416C6C004732392050342052393939205400332056616C6964617465204D657337
:2027E00068003220536D6172742046696C6C2D696E0031204275696C6420436F6C64204D1D
:20280000657368004732380A47323920503100556E696669656420426564204C6576656C63
:20282000696E67004F75747075742055424C20496E666F0047323920570055424C20546F2B
:202840006F6C73004F7574707574204D657368204D6170004D6573682053746F726167652C
:20286000004D657368204564697400537465702D42792D537465702055424C004465616368
:202880007469766174652055424C0047323920440041637469766174652055424C004732E5
:2028A0003920410050726570617265004D343238005072656865617420504C4100436F6FDD
:2028C0006C646F776E0044697361626C65207374657070657273004D38340053657420681D
:2028E0006F6D65206F666673657473005072656865617420414253004C6576656C20636FD4
:20290000726E65727300556E696669656420426564204C6576656C696E6700486F6D65209F
:202920005A00473238205A00486F6D65205900473238205900486F6D652058004732382014
:2029400058004175746F20686F6D6500473238004D6F76652061786973004D61696E004DCE
:202960006F76652058004D6F76652059004D6F7665205A004578747275646572004D6F76EF
:202980006520302E316D6D004D6F766520316D6D004D6F76652031306D6D004D6F766520DE
:2029A00061786973004578747275646572004D6F7665205A004D6F76652059004D6F766557
:2029C0002058005654726176206D696E005654726176206D696E005654726176206D696E7A
:2029E00000566D696E00566D696E00566D696E00566D6178204500566D6178204500566D44
:202A00006178204500566D6178205A00566D6178205A00566D6178205A00566D6178205921
:202A200000566D6178205900566D6178205900566D6178205800566D6178205800566D6120
:202A4000782058004D6F74696F6E00416D6178204500416D6178204500416D6178205A0037
:202A6000416D6178205A00416D6178205900416D6178205900416D6178205800416D6178CF
:202A8000205800412D74726176656C00412D74726176656C00412D72657472616374004122
:202AA0002D7265747261637400416363656C00416363656C004D6F74696F6E0056652D6A7C
:202AC00065726B0056652D6A65726B0056652D6A65726B00567A2D6A65726B00567A2D6A7C
:202AE00065726B0056792D6A65726B0056792D6A65726B0056792D6A65726B0056782D6A37
:202B000065726B0056782D6A65726B0056782D6A65726B004D6F74696F6E004573746570AE
:202B2000732F6D6D004573746570732F6D6D005A73746570732F6D6D005A73746570732F52
:202B40006D6D005973746570732F6D6D005973746570732F6D6D005873746570732F6D6DE9
:202B6000005873746570732F6D6D004D6F74696F6E00473238205A0A4731205A3020463161
:202B800030300053746570732F6D6D004A65726B00416363656C65726174696F6E005665AC
:202BA0006C6F636974790052652D686F6D65205A005A204F6666736574005A204F66667391
:202BC000657400436F6E74726F6C004578747275646572004D6F7665205A004D6F76652020
:202BE00059004D6F76652058005072657061726500496E697469616C697A65204545505240
:202C00004F4D00436F6E74726F6C00526573746F7265206661696C73616665004C6F616478
:202C20002073657474696E677300496E697469616C697A6520454550524F4D0053746F7261
:202C4000652073657474696E67730046696C616D656E74004D6F74696F6E0054656D7065DD
:202C6000726174757265004D61696E00507265686561742041425320636F6E660050726590
:202C80006865617420504C4120636F6E66005049442D44005049442D44005049442D4900E0
:202CA0005049442D49005049442D50005049442D50002008204661637400200820466163F5
:202CC00074002008204D6178002008204D6178002008204D6178002008204D696E002008A2
:202CE000204D696E002008204D696E004F6666004F6E20004175746F74656D700046616EC8
:202D00002073706565640046616E2073706565640046616E207370656564004265640042A9
:202D20006564004E6F7A7A6C65004E6F7A7A6C6500436F6E74726F6C0053746F7265207345
:202D4000657474696E6773004265640042656400426564004E6F7A7A6C65004E6F7A7A6CB5
:202D600065004E6F7A7A6C650046616E2073706565640046616E2073706565640046616ECB
:202D80002073706565640054656D7065726174757265006D6D20746869636B2E0A00427578
:202DA00073696E6573732043617264206973200052656D6F76652026206D65617375726502
:202DC000206265640052656D6F7665207368696D00506C616365207368696D2026206D657B
:202DE000617375726500506C616365207368696D20756E646572206E6F7A7A6C65004D654B
:202E0000736820506F696E74204D656173757265642061743A20000A4D657368206F6E6C08
:202E200079207061727469616C6C7920706F70756C617465642E0A00506C61636520736821
:202E4000696D2026206D656173757265004D656173757265004D6F76696E6720746F206E71
:202E600065787400496E76616C6964206D617020747970652E0A0A003F2846296164652098
:202E800068656967687420666F7220426564204C6576656C20436F7272656374696F6E20B7
:202EA0006E6F7420706C61757369626C652E0A0A003F43616E277420616374697661746541
:202EC00020616E642064656163746976617465206174207468652073616D652074696D657A
:202EE0002E0A0A00426F7468205820262059206C6F636174696F6E73206D75737420626510
:202F0000207370656369666965642E0A0A003F496E76616C696420677269642073697A65FC
:202F200020284A29207370656369666965642028322D39292E0A0A003F285029686173653E
:202F40002076616C756520696E76616C69642028302D36292E0A0A003F2856296572626F59
:202F60007365206C6576656C20697320696D706C61757369626C652028302D34292E0A0A4A
:202F8000003F285229657065746974696F6E20636F756E7420696E76616C69642028312B8A
:202FA000292E0A0A00446F696E6720473239002073616E69747920636865636B73207061A9
:202FC000737365642E0A00202073746174653A004B696C6C2070696E206F6E203A002020E5
:202FE00000592D41786973204D65736820506F696E74732061743A2000202000582D41789F
:203000006973204D65736820506F696E74732061743A20004D4553485F595F4449535420A3
:2030200020004D4553485F585F44495354202000475249445F4D41585F504F494E54535FB3
:2030400059202000475249445F4D41585F504F494E54535F582020004D4553485F4D4158C7
:203060005F59202028282828282833393029202F203229202B202833393029202F203229B7
:20308000202D2028313529293C28333930202B203532293F2828282833393029202F2032A3
:2030A00029202B202833393029202F203229202D2028313529293A28333930202B203532A8
:2030C0002929293D004D4553485F4D41585F58202028282828282834303029202F20322958
:2030E000202B202834303029202F203229202D2028313529293C2828343030202B2038297D
:20310000202B2030293F2828282834303029202F203229202B202834303029202F2032296B
:20312000202D2028313529293A2828343030202B203829202B20302929293D004D455348D8
:203140005F4D494E5F59202028282828282833393029202F203229202D202833393029203B
:203160002F203229202B203135293E2830202B203532293F2828282833393029202F2032D5
:2031800029202D202833393029202F203229202B203135293A2830202B2035322929293DCC
:2031A000004D4553485F4D494E5F58202028282828282834303029202F203229202D20289C
:2031C00034303029202F203229202B203135293E2838202B2030293F282828283430302970
:2031E000202F203229202D202834303029202F203229202B203135293A2838202B20302991
:2032000029293D007A70726F62655F7A6F66667365743A200055424C206F626A6563742039
:20322000636F756E743A2000204C6F616465642E004D65736820004E6F204D657368204CF1
:203240006F616465642E003A2000454550524F4D2044756D703A0A005374616E64617264F6
:2032600020446576696174696F6E3A20002052616E67653A2000204D61783A2000204D6954
:203280006E3A20004D65616E3A200046696E6973686564210A002072616E67653A2000208F
:2032A0006D61783A2000206D696E3A2000207369676D613A2000206D65616E3A20003A20B0
:2032C0007A3A2000206F662000205A00205900205800476F696E6720746F3A00436C6F63E8
:2032E0006B776973650A00436F756E7465722D0020446972656374696F6E3A200020202019
:20330000616E676C653A20005374617274696E67207261646975733A2000506F7369746986
:203320006F6E696E67207468652070726F62652E2E2E0A003F4E756D626572206F66206C1C
:2033400065677320696E206D6F76656D656E74206E6F7420706C61757369626C65202830E2
:203360002D3135292E0A00590058003F53616D706C652073697A65206E6F7420706C6175E9
:203380007369626C652028342D3530292E0A004D3438205A2D50726F62652052657065614A
:2033A000746162696C69747920546573740A003F2856296572626F7365206C6576656C2023
:2033C000697320696D706C61757369626C652028302D34292E0A006D0046696C616D656EF7
:2033E0007420757365643A200053746174733A20002C204C6F6E67657374206A6F623A20E8
:2034000000546F74616C2074696D653A200053746174733A20002C204661696C65643A202B
:20342000002C2046696E69736865643A20005072696E74733A200053746174733A20004534
:2034400025692025730056623A41756720203920323031382072656164792E006F6B00482E
:20346000656174696E6720646F6E652E0020573A004525692025730056623A417567202055
:203480003920323031382072656164792E00205A3A0020423A0020436F756E7420413A0091
:2034A00020453A00205A3A0020593A00583A003A004361703A0053657474696E6720547228
:2034C0006176656C20416363656C65726174696F6E3A200053657474696E67205265747265
:2034E00061637420416363656C65726174696F6E3A200053657474696E67205072696E7445
:2035000020416363656C65726174696F6E3A200053657474696E67205072696E7420616E6D
:20352000642054726176656C20416363656C65726174696F6E3A20004F66660A0046616425
:2035400065204865696768742000426564204C6576656C696E6720004661696C6564207413
:203560006F20656E61626C6520426564204C6576656C696E670A0075626C2E73746F726130
:2035800067655F736C6F74203D200075626C2E6D6573685F69735F76616C6964203D20007C
:2035A0003F557365203020746F20003F496E76616C69642073746F7261676520736C6F742F
:2035C0002E0A003F454550524F4D2073746F72616765206E6F7420617661696C61626C6565
:2035E0002E0A004F666673657473206170706C696564004572723A20546F6F20666172218B
:2036000000546F6F206661722066726F6D207265666572656E636520706F696E740A0046E2
:20362000696C2E204469612E0046696C2E204469612E004F6666004F6E20004520696E2032
:203640006D6D3300436F6E74726F6C0043616E6E6F7420656E746572207375626469723AF8
:203660002000022E2E004D61696E001000C90210012C014001220170011801B0010E01F090
:203680000104015002FA00B002F0003003E600D003DC009004D2007005C800A006BE000067
:2036A00008B400B009AA00D00BA000600E960060118C000015820020197800C01D6E00A03C
:2036C000226400B0275A00902C500000314600E0343C0010383200903A2800603C1E00A09A
:2036E0003D1400803E0A00203F00006265640A002C2073797374656D2073746F707065640D
:2037000021204865617465725F49443A200048656174696E67206661696C65640048656176
:2037200074696E67206661696C65640048656174696E67206661696C656400486561746922
:203740006E67206661696C65640070012C0190012701B0012201C0011D01F00118011002E9
:20376000130130020E016002090190020401C002FF000003FA004003F5008003F000D003B5
:20378000EB002004E6007004E100E004DC004005D700C005D2004006CD00D006C800800734
:2037A000C3003008BE00F008B900C009B400B00AAF00B00BAA00D00CA500000EA000500FC6
:2037C0009B00C01096005012910000148C00C0158700B0178200B0197D00D01B7800001EE9
:2037E000730040206E0090226900F024640040275F0090295A00E02B5500102E50002030DE
:203800004B0010324600E033410090353C001037370070383200A0392D00B03A2800A03B35
:203820002300603C1E00103D1900903D1400103E0F00703E0A00C03E0500003F0000403F8E
:20384000FBFF803FF6FFC03FF1FF544845524D414C2052554E4157415900546865726D6116
:203860006C2052756E61776179004572723A204D494E54454D5020424544004572723A20CA
:203880004D494E54454D50004D494E54454D5020747269676765726564004572723A204D47
:2038A000415854454D5020424544004572723A204D415854454D50004D415854454D502073
:2038C00074726967676572656400202F002042403A0020403A00556E6966696564204265DB
:2038E00064204C6576656C696E6700526573656E643A20006F6B0020746F6F206C6F6E6737
:2039000020657874727573696F6E2070726576656E7465640A0020636F6C642065787472FA
:203920007573696F6E2070726576656E7465640A00627573793A2070617573656420666FCE
:203940007220696E7075740A00627573793A2070617573656420666F7220757365720A00AC
:20396000627573793A2070726F63657373696E670A004B494C4C45442E20004B494C4C2094
:20398000636175736564206279204B494C4C20627574746F6E2F70696E0A004B494C4C45BE
:2039A000442E20004B494C4C2063617573656420627920746F6F206D75636820696E6163BF
:2039C000746976652074696D65202D2063757272656E7420636F6D6D616E643A2000506CDB
:2039E00065617365207265736574005052494E5445522048414C544544005072696E74657E
:203A0000722068616C7465642E206B696C6C28292063616C6C6564210A004361726420729B
:203A2000656D6F766564004361726420696E7365727465640000060900FE07019203212023
:203A40007FFF07FF07FF00000006000001070706020080808080800080030202060105A00C
:203A6000A00507070600005050F850F850500507070600002078A07028F0200507070600FB
:203A800000C0C810204098180507070600006090A040A89068020303060104C04080030758
:203AA00007060100204080808040200307070601008040202020408005050506000120A8E2
:203AC00070A8200505050600012020F820200203030602FFC04080050101060003F8020285
:203AE00002060200C0C0050505060001081020408005070706000070888888888870030783
:203B00000706010040C040404040E0050707060000708808708080F8050707060000F81015
:203B200020100808F005070706000010305090F81010050707060000F880F0080888700576
:203B40000707060000708080F0888870050707060000F8081020202020050707060000703F
:203B600088887088887005070706000070888878080870020505060200C0C000C0C0020698
:203B8000060602FFC0C000C0408004070706000010204080402010050303060002F800F89D
:203BA00004070706010080402010204080050707060000708808102000200507070600009A
:203BC00070880868A8A870050707060000708888F8888888050707060000F08888F088887B
:203BE000F005070706000070888080808870050707060000F08888888888F0050707060092
:203C000000F88080F08080F8050707060000F88080F0808080050707060000708880B88872
:203C20008870050707060000888888F888888801070706020080808080808080050707069B
:203C40000000381010101090600507070600008890A0C0A09088050707060000808080809A
:203C60008080F805070706000088D8A8888888880507070600008888C8A8988888050707B7
:203C800006000070888888888870050707060000F08888F080808005070706000070888874
:203CA00088A89068050707060000F08888F0A09088050707060000788080700808F005070E
:203CC00007060000F82020202020200507070600008888888888887005070706000088883D
:203CE00088888850200507070600008888888888A850050707060000888850205088880505
:203D0000070706000088888850202020050707060000F80810204080F8030707060100E04E
:203D20008080808080E00505050600018040201008030707060100E02020202020E0050395
:203D400003060004205088050101060000F8020202060205804005050506000070087888F9
:203D6000780507070600008080B0C88888F00505050600007080808870050707060000089C
:203D80000868988888780505050600007088F880700507070600003048E040404040050622
:203DA000060600FF7088887808700507070600008080B0C888888801070706020080008048
:203DC000808080800308080601FF200020202020A040040707060000808090A0C0A090030F
:203DE0000707060100C04040404040E0050505060000D0A8A8A8A8050505060000B0C88834
:203E0000888805050506000070888888700506060600FFF08888F080800506060600FF7871
:203E20008888780808050505060000B0C880808005050506000070807008F0040707060058
:203E4000004040E0404040300505050600008888889868050505060000888888502005053E
:203E6000050600008888A8A85005050506000088502050880506060600FF88888878087004
:203E8000050505060000F8102040F8030707060100204040804040200107070602008080BE
:203EA00080808080800307070601008040402040408005020206000268900000000600003B
:203EC0004739310A4731205A323020463330300A473930005072696E742070617573656471
:203EE00000005072696E742061626F72746564005072696E742066726F6D20534400537455
:203F00006F70207072696E7400526573756D65207072696E74005061757365207072696EE0
:203F200074004E6F205344206361726400436F6E74726F6C00507265706172650054756EF8
:203F400065004C6F7765722042656400496E666F2073637265656E00466C6F7700466C6FE3
:203F6000770046616E2073706565640046616E2073706565640046616E20737065656400F8
:203F800042656400426564004E6F7A7A6C65004E6F7A7A6C65005370656564005370656589
:203FA00064005370656564004D61696E005072656865617420504C4120426564005072650F
:203FC0006865617420504C4120456E64005072656865617420504C41005072657061726576
:203FE00000507265686561742041425320456E6400507265686561742041425320426564E1
:2040000000507265686561742041425300507265706172650024F4D43050C38E20C2A24091
:2040200017828B7011127A910D816CD90AA861E108C7586607615143061E4B5D05C145A7F0
:20404000041A411104093D9803713931034036DB0265339102D4305402802E1D02632CEE0B
:2040600001752AC501B028A001102781018F2564012B244B01E0223401AC211F018D200D16
:2040800001801FFC00841EED00971DDF00B81CD200E61BC600201BBC00641AB200B219A85B
:2040A000000A19A0006A189900D117910040178B00B516840031167E00B31579003A1573B0
:2040C00000C7146F0058146A00EE1366008813630025135E00C7125B006C12570015125441
:2040E00000C111510070114F0021114B00D61049008D1047004610440002104200C00F4040
:2041000000800F3E00420F3C00060F3B00CB0E3800930E37005C0E3500270E3400F30D32D2
:2041200000C10D3100900D3000600D2E00320D2D00050D2C00D90C2B00AE0C2900850C29C1
:20414000005C0C2700350C27000E0C2600E80B2400C40B2400A00B23007D0B23005A0B211F
:2041600000390B2100180B2000F80A1F00D90A1E00BB0A1E009D0A1D00800A1D00630A1C9E
:2041800000470A1B002C0A1B00110A1A00F7091A00DD091900C4091900AB091900920917AF
:2041A000007B091800630917004C09160036091600200916000A091500F5081500E00814AB
:2041C00000CC081400B8081400A4081400900813007D0812006B08130058081200460812C9
:2041E0000034081100230811001208110001081100F0071000E0071000D0071000C0071035
:2042000000B0070F00A107100091070E0083070F0074070F0065070E0057070E0049070E13
:20422000003B070D002E070E0020070D0013070D0006070D00F9060C00ED060D00E0060C7A
:2042400000D4060C00C8060C00BC060C00B0060C00A4060B0099060C008D060B0082060B7D
:204260000077060B006C060B0061060A0057060B004C060A0042060A0038060A002E060A2C
:204280000024060A001A060A001006090007060A00FD050900F4050900EB050900E2050994
:2042A00000D9050900D0050900C7050900BE050900B5050800AD050800A50509009C0508C0
:2042C00000940508008C050800840508007C050800740508006C050700650508005D0507B6
:2042E00000560508004E050700470507004005080038050700310507002A0507002305077B
:20430000001C050600160507000F0507000805060002050700FB040600F5040700EE04061B
:2043200000E8040600E2040700DB040600D5040600CF040600C9040600C3040600BD04069A
:2043400000B7040600B1040500AC040600A6040600A00405009B04060095040500900406F6
:20436000008A04050085040500800406007A04050075040500700405006B04050066040535
:2043800000610405005C04050057040500520405004D04050048040500430405003E04045A
:2043A000003A04050035040500300404002C04050027040400230405001E0404001A04046C
:2043C0000016040500110404000D040400090405000404040000040400FC030400F8030468
:2043E00000F4030400F0030400EC030400E8030400E4030400E0030400DC030400D8030455
:2044000000D4030400D0030400CC030400C8030300C503030024F404D9201BC40C5C0E987C
:2044200004C4095F0265077101F405F900FB04B30048048700C103690058035500030345CD
:2044400000BE023A008402310053022A002902250004022000E4011C00C8011900AF01170C
:20446000009801140084011300710110006101100051010E0043010D0036010B002B010BD9
:204480000020010B00150109000C01090003010800FB000800F3000800EB000700E40006D5
:2044A00000DE000600D8000600D2000600CC000500C7000500C2000500BD000400B9000480
:2044C00000B5000400B1000400AD000400A9000400A5000300A20003009F0004009B000382
:2044E00000980003009500020093000300900003008D0002008B0003008800020086000232
:204500000084000300810002007F0002007D0002007B0002007900020077000100760002A9
:20452000007400020072000100710002006F0002006D0001006C0002006A000100690002FC
:2045400000670001006600010065000100640002006200010061000100600001005F000239
:20456000005D0001005C0001005B0001005A00010059000100580001005700010056000167
:2045800000550001005400010053000000530001005200010051000100500001004F000183
:2045A000004E0000004E0001004D0001004C0001004B0000004B0001004A00010049000197
:2045C0000048000000480001004700010046000000460001004500000045000100440001A5
:2045E00000430000004300010042000000420001004100000041000100400001003F0000AC
:20460000003F0001003E0000003E0001003D0000003D0001003C0000003C0000003C0001AD
:20462000003B0000003B0001003A0000003A000100390000003900010038000000380000AB
:204640000038000100370000003700010036000000360000003600010035000000350000A5
:2046600000350001003400000034000000340001003300000033000000330001003200009B
:20468000003200000032000100310000003100000031000100300000003000000030000190
:2046A000002F0000002F0000002F0000002F0001002E0000002E0000002E0001002D000085
:2046C000002D0000002D0000002D0001002C0000002C0000002C0000002C0001002B000076
:2046E000002B0000002B0000002B0001002A0000002A0000002A0000002A00010029000066
:20470000002900000029000000290000002900010028000000280000002800000028000054
:20472000002800010027000000270000002700000027000000270001002600000026000040
:2047400000260000002600000026000100250000002500000025000000250000002500002D
:20476000002500010024000000240000002400000024000000240001002300000023000018
:20478000002300000023000000230000002300000023000100220000002200000022000003
:2047A0000022000000220000002200010021000000210000002100000021000000210000ED
:2047C0000021000000210001002000000020000000200000002000000020000000200000D6
:2047E0000020000000200001001F0000001F0000001F0000001F0000001F0000001F0000BE
:20480000001F0001001E0000001E0000001E0000001E0000004D383420582059205A204577
:20482000000606FFFFFF00000202020B00000C01000A000C01000C0B0000000C000A0020ED
:2048400066726F6D2063757272656E74206D6573682E0A005375627472616374696E6720D6
:204860006D65736820696E20736C6F7420003F557365203020746F20003F496E76616C6911
:20488000642073746F7261676520736C6F742E0A003F557365203020746F20003F53746F31
:2048A0007261676520736C6F7420232072657175697265642E0A003F454550524F4D2073E1
:2048C000746F72616765206E6F7420617661696C61626C652E0A004D6573682045646974B9
:2048E000696E672053746F70706564004D65736820456469746F7200446F6E6520456469AF
:2049000074696E67204D6573680A00446F6E652045646974696E67204D6573680046696EFA
:20492000652054756E696E67204D6573680028582C5929206F757473696465207072696EAC
:204940007461626C65207261646975732E0A004F6666736574206F7574206F6620626F7535
:204960006E64732E20283020746F2031306D6D290A0A003A48354830482B485D0A00626599
:204980006420706C616E65206E6F726D616C203D205B002020443D002020423D004C53469D
:2049A00020526573756C747320413D00436F756C64206E6F7420636F6D706C657465204CFA
:2049C000534621006175746F25692E67004D3234004D32332025730057726974696E672020
:2049E000746F2066696C653A20006F70656E206661696C65642C2046696C653A20006F707E
:204A0000656E206661696C65642C2046696C653A200046696C652073656C65637465640A25
:204A2000002053697A653A200046696C65206F70656E65643A20006F70656E206661696C7E
:204A400065642C2046696C653A20002066696C653A2000646F696E67006672657368004ED6
:204A60006F772000454E4420535542524F5554494E450A002220706F7300222070617265A1
:204A80006E743A2200535542524F5554494E452043414C4C207461726765743A22004B49F5
:204AA0004C4C45442E2000747279696E6720746F2063616C6C207375622D67636F64652072
:204AC00066696C6573207769746820746F6F206D616E79206C6576656C732E204D415820A1
:204AE0006C6576656C2069733A004572726F723A0043616E6E6F74206F70656E2073756285
:204B00006469722000000050422EBAA2425D74DD4246170C435D74294374D146438C2E6413
:204B200043D2C580435D748F43E9229E4374D1AC430080BB438C2ECA4317DDD843A38BE7AC
:204B4000432E3AF64300007041A38B4242A38BA44274D1E742A38B15438C2E374374D15835
:204B6000435D747A43A30B8E4317DD9E438CAEAF430080C0437451D143E922E2435DF4F215
:204B800043E9E2014453442063617264206F6B0A006F70656E526F6F74206661696C656492
:204BA0000A00766F6C756D652E696E6974206661696C65640A00534420696E697420666190
:204BC000696C0A005374616E6461726420446576696174696F6E3A20004D65616E204D6555
:204BE0007368204865696768743A200023206F662073616D706C65733A20000A4D657368E9
:204C0000206F6E6C79207061727469616C6C7920706F70756C617465642E0A0A00200A0066
:204C20004420636F6E7374616E743A2000726F746174696F6E206D61747269783A005D0A86
:204C40000062656420706C616E65206E6F726D616C203D205B0020616E642074616B652040
:204C600061206D6561737572656D656E742E0A00646F6E650A00496E737566666963696520
:204C80006E7420646174610A004578747261706F6C6174696E67206D6573682E2E2E006550
:204CA0006E7175657565696E672022006563686F3A000C01180111241FBECFEFD1E2DEBFC2
:204CC000CDBF00E00CBF14E0A0E0B2E0E0E6F3EF02E00BBF02C007900D92A032B107D9F7F1
:204CE00027E1A0E2B4E001C01D92A13BB207E1F716E2CAE5D6E200E006C021970109802F43
:204D0000FE010F940D79C935D10780E00807A9F70F94EB5D0D949F790C9400002F923F92B0
:204D20004F925F926F927F928F929F92AF92BF92CF92DF92EF92FF920F931F93CF93DF939F
:204D4000CDB7DEB7CE5AD1090FB6F894DEBF0FBECDBF81E090E09093AA0E8093A90E80916A
:204D6000B7088D3411F40C94F02E843511F40C943141873411F00C946C418091B508909128
:204D8000B6088C31910509F459C6B4F4843091053CF482309105B4F597FF2DC00C948341EC
:204DA0008430910509F404C64A9711F00C9483410E94B14A0C9483418A32910509F437C74E
:204DC0004CF48D31910509F43EC64E9709F43FC60C9483418B35910509F4A8C68C359105DB
:204DE00009F4A9C68A35910511F00C948341109225040C9483418091570281110C948A41F7
:204E00000C94834120915702222311F40C94834111E0029709F010E00E94655782E50E949C
:204E20005449882309F45CC10E94EE486B017C014090591350905A1360905B1370905C13F9
:204E400020915D1330915E1340915F135091601323962CAF3DAF4EAF5FAF239780910311FE
:204E600090910411A0910511B09106112B968CAF9DAFAEAFBFAF2B972091071130910811E5
:204E80004091091150910A1127962CAF3DAF4EAF5FAF279720E030E0A901C701B6010F9402
:204EA000136E882309F46AC5A30192012B966CAD7DAD8EAD9FAD2B970F94136E811111C08F
:204EC00023962CAD3DAD4EAD5FAD239727966CAD7DAD8EAD9FAD27970F94136E882309F484
:204EE0004DC520E030E0A901C701B6010F94136E881F8827881F18130BC080E090E0A0E8F8
:204F0000BFE36B968CAF9DAFAEAFBFAF6B970AC020E030E040E85FEB6B962CAF3DAF4EAF89
:204F20005FAF6B97A30192012B966CAD7DAD8EAD9FAD2B970F94E17463966CAF7DAF8EAF68
:204F40009FAF639723962CAD3DAD4EAD5FAD239727966CAD7DAD8EAD9FAD27970F94E1748F
:204F600067966CAF7DAF8EAF9FAF679763962CAD3DAD4EAD5FAD6397CA01B9010F94786E99
:204F80004B015C0167962CAD3DAD4EAD5FAD6797CA01B9010F94786E9B01AC01C501B401D1
:204FA0000F94E2740F949C772F966CAF7DAF8EAF9FAF2F9720E030E040E05FE30F94786EEA
:204FC0004B015C01A7019601C701B6010F94786E6B017C01A5019401C501B4010F94786EB9
:204FE0009B01AC01C701B6010F94E1740F949C779B01AC016B966CAD7DAD8EAD9FAD6B9725
:205000000F94786E4B015C012B962CAD3DAD4EAD5FAD2B97C301B2010F94E27420E030E091
:2050200040E05FE30F94786E6B017C0167966CAD7DAD8EAD9FAD679790582F962CAD3DAD67
:205040004EAD5FAD2F970F94BE759B01AC01C501B4010F94786E9B01AC01C701B6010F94F5
:20506000E274A30192010F94E1746B017C0127962CAD3DAD4EAD5FAD279723966CAD7DAD81
:205080008EAD9FAD23970F94E27420E030E040E05FE30F94786E2B013C012F962CAD3DADEA
:2050A0004EAD5FAD2F9763966CAD7DAD8EAD9FAD63970F94BE759B01AC01C501B4010F9429
:2050C000786E9B01AC01C301B2010F94E27423962CAD3DAD4EAD5FAD23970F94E17414C028
:2050E00089E40E945449882329F00E94EE486B017C0103C0C12CD12C76018AE40E945449AE
:205100008823F9F00E94EE482B966CAF7DAF8EAF9FAF2B9720E030E0A901C701B6010F94F2
:20512000136E81111EC020E030E0A9012B966CAD7DAD8EAD9FAD2B970F94136E811111C0F0
:205140001DC420E030E0A901C701B6010F94136E882309F413C42B961CAE1DAE1EAE1FAEA3
:205160002B97D701C601B05823968CAF9DAFAEAFBFAF23972B964CAC5DAC6EAC7FAC2B9738
:2051800077FA709477F870949C01AD01BC01CD010F94786E4B015C01A3019201C301B20171
:2051A0000F94786E9B01AC01C501B4010F94E2740F949C77AB966CAF7DAF8EAF9FAFAB979E
:2051C0002091591330915A1340915B1350915C1327962CAF3DAF4EAF5FAF2797A701960169
:2051E00027966CAD7DAD8EAD9FAD27970F94E274E3966CAF7DAF8EAF9FAFE39780915D132B
:2052000090915E13A0915F13B091601363968CAF9DAFAEAFBFAF63972B962CAD3DAD4EADE1
:205220005FAD2B97BC01CD010F94E274E7966CAF7DAF8EAF9FAFE7972091031130910411B4
:20524000409105115091061167962CAF3DAF4EAF5FAF6797E3962CAD3DAD4EAD5FADE397E5
:2052600067966CAD7DAD8EAD9FAD67970F94E1746B017C018091071190910811A0910911DA
:20528000B0910A116B968CAF9DAFAEAFBFAF6B97E7962CAD3DAD4EAD5FADE797BC01CD010D
:2052A0000F94E1744B015C01209161133091621340916313509164136F962CAF3DAF4EAF8A
:2052C0005FAF6F9760910B1170910C1180910D1190910E110F94E1742F966CAF7DAF8EAFDF
:2052E0009FAF2F9780910F1190911011A0911111B0911211AF968CAF9DAFAEAFBFAFAF9793
:2053000020916513309166134091671350916813A3962CAF3DAF4EAF5FAFA397A7019601FF
:2053200023966CAD7DAD8EAD9FAD23970F94786EA7966CAF7DAF8EAF9FAFA797A50194011F
:20534000C301B2010F94786E9B01AC01A7966CAD7DAD8EAD9FADA7970F94E274A7966CAF6E
:205360007DAF8EAF9FAFA797A501940123966CAD7DAD8EAD9FAD23970F94786E4B015C018E
:20538000A7019601C301B2010F94786E9B01AC01C501B4010F94E174A7962CAD3DAD4EAD17
:2053A0005FADA7970F9455756B017C0120E030E0A9010F94136E87FF0AC02BED3FE049ECB3
:2053C00050E4C701B6010F94E2746B017C01112351F02BED3FE049EC50E4C701B6010F9401
:2053E000E1746B017C0120E030E0A901C701B6010F94136E811128C067962CAD3DAD4EADDD
:205400005FAD679727966CAD7DAD8EAD9FAD27970F94136E811118C06B962CAD3DAD4EADF0
:205420005FAD6B9763966CAD7DAD8EAD9FAD63970F94136E811108C08BEDC82E8FE0D82E40
:2054400089ECE82E80E4F82EAB962CAD3DAD4EAD5FADAB97C701B6010F94786E9B01AC0199
:205460000F94786E4B015C012F962CAD3DAD4EAD5FAD2F97CA01B9010F94786E9B01AC014E
:20548000C501B4010F94E2740F949C774B015C012FE632E143E85AE30F94136E87FD6AC2D5
:2054A000C501B4010F9457760F942B7665967FAF6EAF6597672B31F481E090E065969FAFAA
:2054C0008EAF65976596AEADBFAD6597BD0180E090E00F94176E4B015C019B01AC01C70165
:2054E000B6010F94BE7527966CAF7DAF8EAF9FAF2797A50194012F966CAD7DAD8EAD9FAD08
:205500002F970F94BE75A7966CAF7DAF8EAF9FAFA797A3962CAD3DAD4EAD5FADA397AF9620
:205520006CAD7DAD8EAD9FADAF970F94E174A50194010F94BE75EB966CAF7DAF8EAF9FAFFF
:20554000EB9727962CAD3DAD4EAD5FAD2797CA01B9010F94786E20E030E040E05FE30F9461
:20556000786E9B01AC0160E070E080E89FE30F94E174AB966CAF7DAF8EAF9FAFAB976F9630
:205580002CAD3DAD4EAD5FAD6F9729873A874B875C87A3968CAD9DADAEADBFADA3978D8744
:2055A0009E87AF87B88B60916E0270916F02072E000C880B990B0F94196E20915C02309108
:2055C0005D0240915E0250915F020F94786E2AE037ED43E25CE30F94786E6BAF7CAF8DAFD4
:2055E0009EAF0E94E4BB9B01AC0128533F4F4F4F5F4FA3962CAF3DAF4EAF5FAFA3973FAD4E
:205600002C963FAF2C9721964FAD219760964FAF609722962FAC229723963FAC239781E0B6
:2056200090E06D969FAF8EAF6D9799E168969FAF68976D96EEADFFAD6D9765962EAD3FAD93
:205640006597E217F30709F45AC10F941F110E94E4BBDC01CB01A3962CAD3DAD4EAD5FAD83
:20566000A397821B930BA40BB50BB7FD10C00E94E4BB9B01AC0128533F4F4F4F5F4FA396AA
:205680002CAF3DAF4EAF5FAFA3970F94E41268963FAD6897315068963FAF6897332309F4BD
:2056A0004EC0AB962CAD3DAD4EAD5FADAB97C301B2010F94786E6B017C0127962CAD3DAD26
:2056C0004EAD5FAD27972C966FAD2C9760967FAD6097C1010F94786EA70196010F94E274C8
:2056E0007B018C01AB962CAD3DAD4EAD5FADAB972C966FAD2C9760967FAD6097C1010F9435
:20570000786E4B015C0127962CAD3DAD4EAD5FAD2797C301B2010F94786E9B01AC01C501A6
:20572000B4010F94E1742C966FAF2C9760967FAF60971C01C701D8012C013D0162C06D96B0
:205740004EAD5FAD6D97BA0180E090E00F94176E27962CAD3DAD4EAD5FAD27970F94786EBD
:205760004B015C010F94BB756B017C01C501B4010F9492774B015C01A701960123966CADE3
:205780007DAD8EAD9FAD23970F94786E2B013C01A50194012B966CAD7DAD8EAD9FAD2B9724
:2057A0000F94786E9B01AC01C301B2010F94E2742C966FAF2C9760967FAF60971C01A50126
:2057C000940123966CAD7DAD8EAD9FAD23970F94786E4B015C01A70196012B966CAD7DAD82
:2057E0008EAD9FAD2B970F94786E9B01AC01C501B4010F94E1742B013C0159E168965FAF6C
:2058000068972C962FAD2C9760963FAD6097A101E3966CAD7DAD8EAD9FADE3970F94E274F7
:20582000AF966CAF7DAF8EAF9FAFAF9769837A838B839C83A3019201E7966CAD7DAD8EADC3
:205840009FADE7970F94E2744B015C016D837E838F83988729853A854B855C85A7966CAD46
:205860007DAD8EAD9FADA7970F94E2746B017C0169877A878B879C87EB962CAD3DAD4EADF2
:205880005FADEB976D857E858F8598890F94E2746D877E878F87988B10915313AF968CADA0
:2058A0009DADAEADBFADAF9788A399A3AAA3BBA38CA29DA2AEA2BFA2C8A6D9A6EAA6FBA643
:2058C000CE0180960E947047E12E8E01055C1F4F9E01235F3F4FAE01485D5F4FBE016C5DE4
:2058E0007F4FCE0180960E9474806D96AEADBFAD6D9711966D96BFAFAEAF6D979ACEE09040
:2059000053138091031190910411A0910511B091061188A399A3AAA3BBA3809107119091CB
:205920000811A0910911B0910A118CA39DA3AEA3BFA380910B1190910C11A0910D11B0918A
:205940000E1188A799A7AAA7BBA7CE0180960E9470478E01055C1F4F2FE031E1AE01485DF5
:205960005F4FBE016C5D7F4FCE0180960E9474800E94A74A0E9478470C948341EAEEFAE49A
:2059800084918F010F5F1F4F882321F00E948347F801F6CFE7ECF3E084918F010F5F1F4F79
:2059A000882311F40C9483410E948347F801F4CF80E50E945449882329F00E9491466B015E
:2059C0007C0103C0C12CD12C760183E50E945449882361F00E94EE4820E030E04AE754E432
:2059E0000F94786E0F942B766B017C010F94662A80918402811105C060E08DED93E00F9400
:205A0000B51F0E9478478091410990914209A0914309B0914409C80ED91EEA1EFB1E0E94EF
:205A2000E4BBDC01CB018C199D09AE09BF09B7FD02C00C9483410F94E412F1CF80E00E941F
:205A4000835B0C9483410E94C2940C948341C0905913D0905A13E0905B13F0905C1388E5E5
:205A60000E945449811108C020E030E0A901C701B6010F94E27402C00E94EE4868A379A39A
:205A80008AA39BA3C0905D13D0905E13E0905F13F090601389E50E945449811109C020E02D
:205AA00030E040E552E4C701B6010F94E27402C00E94EE486B017C0169837A838B839C836A
:205AC00088A099A0AAA0BBA02FEC37EF4FEF50E4C501B4010F94097787FF02C00C948341C3
:205AE00021E230E048EC53E4C501B4010F94136E181614F40C9483412AEF3EEF4FE452E440
:205B0000C701B6010F94097787FF02C00C94834121E230E043EC53E4C701B6010F94136E1B
:205B2000181614F40C9483410C948F4181E0809325040C9483410F94662A1DEC212E12E0DD
:205B4000312E08E0C02E05E0D02EE12CF12C00E010E01FAED1018D911D010E94544988236E
:205B600009F451C00E94EE484B015C010330110559F0F701E05FF84F20813181428153819C
:205B80000F94E1744B015C01F701E75AFC4E2081318142815381C501B4010F94E1742B0158
:205BA0003C012DEB37E346E855EB0F94097787FD0AC02DEB37E346E855E3C301B2010F94E5
:205BC000136E181604F50330110559F48092651390926613A0926713B0926813B1E0BFAFFA
:205BE00012C0A3019201F60160817181828193810F94E274D6016D937D938D939C931397E2
:205C0000C8010E947C5F0F5F1F4FB4E0CB0ED11CE4E0EE0EF11C0430110509F09BCFFFADE2
:205C2000F1110F9406490E94FCF90C94834180915702882311F40C94834189E40E9454494B
:205C4000E82E882321F00E94BE48F62E01C0F12C8AE40E945449182F882331F00E94BE4860
:205C6000062FE11004C00BC000E0EE20B9F02BE02F1510F00C944145E8EFF3E003C00C30BA
:205C8000D8F70CC084918F010F5F1F4F882311F40C9483410E948347F801F4CF0E94604961
:205CA000EE2051F1EF2DF0E03BE03F1558F0EE0FFF1FEE0FFF1FEB5BF44B65917591859124
:205CC000949112C0BF01FF0F880B990B0F94196E23EA3BE846E052E40F94786E20E030E079
:205CE00040E751E40F94E27460930311709304118093051190930611112349F1E02FF0E080
:205D00000C3058F4EE0FFF1FEE0FFF1FEB5FF44B659175918591949112C0BF01FF0F880BD2
:205D2000990B0F94196E2AEB38EE4AEE51E40F94786E20E030E040E552E40F94E27460930D
:205D40000711709308118093091190930A1180E50E945449882319F00E94DF4803C080E55B
:205D60000E9425498823C1F01123B1F020E030E040E552E460910711709108118091091129
:205D800090910A110F94E17460930711709308118093091190930A1186E40E9454498823E9
:205DA000D9F00E94EE486B017C0120E030E0A9010F940977181684F420E030E040E752E469
:205DC000C701B6010F94BE7560935C0270935D0280935E0290935F020F946E160C94834139
:205DE0008091B5089091B6088237910509F4FEC60CF0CFC08B34910509F4ECC40CF057C046
:205E00008931910509F4E1C21CF58431910509F46CC27CF48131910509F455C22CF4029786
:205E200008F4C7C10C948341429709F409C60C9483418631910509F4A1C20CF49BC28731AF
:205E4000910509F4A1C2489709F4B4C20C9483418F31910509F431C47CF48B31910509F48F
:205E6000CAC20CF4BAC28C31910509F4C8C24E9709F4C9C20C9483418A32910509F449C413
:205E80002CF4809709F4CDC30C9483418033910509F47FC4C19711F00C948341F0902004F0
:205EA00081E0F826F0922004E9EDF4E076C48836910509F4A1C40CF044C08235910509F4D9
:205EC000B6C534F58D34910509F48EC40CF486C48E34910509F48CC48135910511F00C949C
:205EE00083410F94640D0F94662A0F946E121092A8171092A71768EE73E080E090E00F9497
:205F0000B21E60E084E295E00F94B51F0C9483418435910509F494C50CF48DC58535910574
:205F200009F4C9C58C35910511F00C9483414DECC42E42E0D42E5FEEE52E50E1F52E10E027
:205F4000D5C58D36910509F41BC59CF48A36910509F436C50CF40CC58B36910509F455C554
:205F60008C36910511F00C948341109267020C9483418F36910509F456C40CF441C48037C7
:205F8000910509F4C1C48137910509F4C1C40C948341823E910511F40C9497390CF080C0AE
:205FA0008E3B910509F4F0C4DCF58837910509F421C7CCF48537910509F470C644F483378F
:205FC000910511F00C948341EFEEF5E015C68637910509F46CC68737910511F00C948341FE
:205FE000E5EDF6E0A3C68C38910509F4BDC45CF48937910511F00C9483411092D71410927E
:20600000D6140C9483418139910509F4FAC68B39910511F00C9483410E94FEFF0C94834163
:206020008D3C910509F4D1C7C4F4893C910509F4AAC734F4883C910509F45DC70C948341E4
:206040008B3C910509F4A3C78C3C910511F00C9483410E942AF90C948341833D910511F435
:206060000C946E388CF48E3C910511F00C948341BDECCB2EB2E0DB2E10E4E12E15E0F12E41
:2060800000E010E00C945C388C3D910511F40C943F398D3D910511F40C944E390C94834190
:2060A000843A41E0940711F40C94E93F0CF041C08336A1E09A0711F40C940741DCF48E3244
:2060C000E1E09E0711F40C94DD3A3CF48D32914011F40C94C2390C9483418F3231E093076E
:2060E00011F40C94313B8033914011F40C94603A0C948341813951E0950711F40C94E13F1C
:206100004CF48039914011F00C9483410F94662A0C9483418239E1E09E0711F40C94E53FCF
:206120008A39914011F00C9483410E941CF90C948341863F21E0920711F40C94AE40ECF479
:206140008C3A41E0940711F40C94A8403CF4853A914011F40C94EC3F0C948341843FB1E0E8
:206160009B0711F40C94AB40853F914011F00C9483410E9487890C9483418335F3E09F07AC
:2061800011F40C94B1404CF4873F914011F00C9483410E9411F90C948341803A43E09407A5
:2061A00009F47EC2873E934011F40C941E410C948341A090B308B090B40880E50E94544917
:2061C000882359F00E9491466B017C0111E0672B682B692B31F410E004C010E0C12CD12C0C
:2061E000760183E50E9454498823F1F00E94EE4820E030E04AE754E40F94786E0F942B76D7
:206200006B017C01111112C0672B682B692B71F4A114B10459F0D5018C91882339F061E0C8
:20622000C5010F94D31F07C0112391F360E08CE394E00F94B51F83E090E09093AA0E809329
:20624000A90E81E0809391090F94662A0E947847C114D104E104F104E9F08091410990910C
:206260004209A0914309B0914409C80ED91EEA1EFB1E0E94E4BBDC01CB018C199D09AE09EE
:20628000BF09B7FF1CC0809191098823C1F00F94E412EFCF80919109882319F00F94E4124E
:2062A000F9CF8091D9149091DA1460E0029719F486E294E002C087E194E00F94B51F109290
:2062C00091090C94834160E08FE494E00F94B51F5F988A989FB7F894809108018E7F8093ED
:2062E00008019FBF12980C948341E7E6F4E084918F010F5F1F4F882321F00E948347F801E6
:20630000F6CF10928B1710928A1740E050E0BA0186E395E10E9418648BE1E6E3F5E1DE013F
:20632000159601900D928A95E1F780913415909135159C838B8381E393E09A83898340E079
:2063400050E0BE016F5F7F4F86EF93E00F94593BCE0101960F946412E8E5F4E084918F01CE
:206360000F5F1F4F882311F40C9483410E948347F801F4CF0F9446420C94834110920515BA
:20638000109206150C948341E091B308F091B4088081882329F0803209F410823196F8CFDF
:2063A00040E061E08091B3089091B4080F94A33D0C94834180910615882319F081E0809398
:2063C00005150F94F24A0C9483411092051589ED94E10F9451290C94834180910615882361
:2063E00011F40C94834183E50E94544981110C94E3410C9483410E94EF560C9483410E94E6
:2064000009F90C94834180910615882311F40C94834180ED96E10E948A6680ED96E10E94DA
:20642000BB661092041510920315E090B308F090B40880910615882311F40C9483410F947C
:20644000983D1D8218861C821B8281E393E09A83898382E395E19093521580935115F70119
:2064600080818F3209F068C06FE270E0C7010F945C798C010F5F1F4F9E012F5F3F4F4901EA
:206480000115110509F45EC06FE270E0C8010F945C796C01009709F456C00817190708F085
:2064A00052C05C01A01AB10AA501B801CE0180960F948579E0E2F0E0EC0FFD1FEA0DFB1D5B
:2064C00010828E01005E1F4FD8018D918D01882319F00E948347F8CF8AE00E94834760919C
:2064E0005115709152156115710511F06C5F7F4F21E0AE01405E5F4FCE0105960E946A6C6A
:20650000811112C0BE01605E7F4F8EE994E00E94577E8EE20E9483478AE00E948347C401F3
:206520000F9464120C948341909252158092511586010F5F1F4FA4CF83E595E1909352159F
:2065400080935115870160915115709152156115710511F06C5F7F4F18A21BA222E0A801D3
:20656000CE0180960E946A6C811102C0F12C14C0CE0180960F948E598823C1F361E0CE019B
:2065800080960E940165009789F325EEFC0120831BA20E944C66F82ECE0180960E946147B1
:2065A000FF2009F1E8E7F4E084917F012FEFE21AF20A882321F00E948347F701F5CFD801B7
:2065C0008D918D01882319F00E948347F8CF8AE00E948347109281171092821710928317A1
:2065E0001092841718C0E6E8F4E084917F01BFEFEB1AFB0A882321F00E948347F701F5CFB3
:20660000F80181918F01882319F00E948347F8CF8EE20E948347CE0101960F9464120C94FD
:2066200083418091051581110F94662A80910615882311F40C94834180E50E945449882317
:2066400019F00E94DF4803C080E50E942549182F482F61E08091B3089091B4080F94A33D05
:2066600083E50E945449882381F00E94BE48AB01BC014093811750938217609383177093CF
:20668000841780ED96E10E94186480910615882319F081E08093051511110C94834191CE0A
:2066A0008091B3089091B40821E02093041540E060E00F94A33D0C94834189ED94E10F948F
:2066C000242968A379A38AA39BA3BE016F5F7F4FCE0180960E94A14660E0CE0101960F94C9
:2066E000D31FECEAFCE484918F010F5F1F4F882321F00E948347F801F6CFBE016F5F7F4F30
:2067000082EB94E00E94577E8AE00E9483470C94834183E50E945449882311F40C9483412C
:206720000E94CE48E82E80E50E945449882341F00E94BE488B0177FF02C00C94834102C079
:206740000DE010E0902FE5E4F7E088E28E0F2491921729F031968E13FACF0C94F341EAEEA2
:20676000FAE484918F010F5F1F4F882321F00E948347F801F6CFEFEBF4E084918F010F5F13
:206780001F4F882311F40C9483410E948347F801F4CF0E9494F30C94834184918F010F5FAF
:2067A0001F4F882321F00E948347F801F6CFF11003C0E3EDF4E002C0EEECF4E084918F0108
:2067C0000F5F1F4F882311F40C9483410E948347F801F4CF0F94F24A0C94834189ED94E173
:2067E0000F9451290C9483410F9412580C9483410E946BF20C9483410F9449000C948341F4
:206800008EE40E945449882311F40C9483410E94BE4860936B1370936C1380936D13909362
:206820006E130C94834183E50E942549882359F083E50E945449882319F00E94CE4801C033
:2068400080E080931905ECEAFCE484918F010F5F1F4F882321F00E948347F801F6CFE2EFB9
:20686000F4E084918F010F5F1F4F882321F00E948347F801F6CF809119058823A1F1E4EE9F
:20688000CE2EE4E0DE2EE12CF12C20E08091190590E00E2C02C0959587950A94E2F780FF2B
:2068A00017C0BB24B394B20E222319F08CE20E948347F60125913491F901849189010F5F7A
:2068C0001F4F882321F00E9483479801F5CF2B2DFFEFEF1AFF0A32E0C30ED11C45E0E4167E
:2068E000F104A1F60CC0EEEEF4E084918F010F5F1F4F882321F00E948347F801F6CF8AE0BF
:206900000E9483470C94834189EF94E00F947E1283E50E945449882369F00E94CE488D3365
:2069200020F4809360020C9483418CE3809360020C948341ECEAFCE484918F010F5F1F4FEB
